:020000040800F2
:10000000C0C200207D0C00083D0500083F05000827
:1000100043050008470500084B05000800000000E4
:100020000000000000000000000000004F05000874
:1000300051050008000000005305000855050008A0
:10004000970C0008970C0008970C0008970C000804
:10005000970C0008970C0008970C0008970C0008F4
:10006000970C0008970C0008970C0008970C0008E4
:10007000970C0008970C0008970C0008970C0008D4
:10008000970C0008970C0008970C0008970C0008C4
:10009000970C0008970C0008970C0008970C0008B4
:1000A000970C0008970C0008970C0008970C0008A4
:1000B0001F080008970C00083D330008970C000843
:1000C000970C0008970C0008970C0008970C000884
:1000D000970C0008F30B0008970C0008970C000819
:1000E000970C0008970C0008970C0008970C000864
:1000F000970C0008970C0008970C0008970C000854
:10010000970C0008970C0008970C0008970C000843
:10011000970C0008970C0008970C0008970C000833
:10012000970C0008970C0008970C0008970C000823
:1001300000F002F800F06BF80AA090E8000C82448E
:100140008344AAF10107DA4501D100F060F8AFF26B
:10015000090EBAE80F0013F0010F18BFFB1A43F0A5
:10016000010318470C5000002C5000000A444FF0C7
:10017000000C10F8013B13F0070408BF10F8014B06
:100180001D1108BF10F8015B641E05D010F8016B4B
:10019000641E01F8016BF9D113F0080F1EBF10F8AF
:1001A000014BAD1C0C1B09D16D1E58BF01F801CBD2
:1001B000FAD505E014F8016B01F8016B6D1EF9D555
:1001C0009142D6D37047000000230024002500266A
:1001D000103A28BF78C1FBD8520728BF30C148BFAA
:1001E0000B607047642903F09387752903F09087AB
:1001F000782903F0C987632904F02881732904F062
:100200002D81002070471FB51FBD10B510BD04F033
:100210005FF91146FFF7F7FF00F013F904F07DF9DD
:1002200003B4FFF7F2FF03BC00F088FC2DE9F04FA8
:100230008FB082464FF0000BAD48006804F0DFFB42
:10024000044622460B4600204FF0804104F050FA4D
:10025000A84A03C20022A84BA64903C904F022FC05
:10026000A64A03C2A2490968A54A1268881804F080
:10027000C6FB064600224FF0804304F039FA0446DC
:1002800004F08EFB9F490860504604F0B8FB064618
:100290000F469C490968964A1268881A04F0AFFB19
:1002A00000224FF08043CDE90C0104F0FBFB8046B7
:1002B00032463B4604F01CFA044604F03EF9924AEA
:1002C00003C292480068401C914908604FF40061E5
:1002D000584603F082FE8F4908603BE0504604F028
:1002E0008EFB80468C480CC8404604F0DBFBCDE911
:1002F000080189480CC8089804F0D4FB00224FF08C
:100300008043CDE90A0104F0F3F906460F46784828
:10031000006804F074FB32463B46CDE90C0104F062
:1003200033F9044604F03CFB78490860084601684C
:100330007A487B4A128840F8221079480088401C8D
:10034000774908806B4874490CC803C904F01CF94C
:10035000714A03C26C4870490CC803C904F066FBBB
:10036000BCD369E06249096801EB410004F047FB36
:10037000CDE90A0163490968480004F040FBCDE972
:100380000601504604F03BFB804663480CC84046DB
:1003900004F088FB064660480CC8304604F082FB37
:1003A000044600224FF0804304F0A2F9CDE9020197
:1003B0004FEA4A0004F023FB064657480CC8304673
:1003C00004F070FB044650480CC8204604F06AFB59
:1003D000CDE90001DDE9022304F048FDCDE9040187
:1003E000DDE9062304F042FDCDE90801DDE90A2339
:1003F00004F0CAF8CDE90C0104F0D2FA43490860D0
:10040000084600684549464A128841F82200444897
:100410000088401C4249088036483F490CC803C93F
:1004200004F0B2F83C4A03C235480068401E374920
:100430000968884200DC00E094E700BF0FB0BDE827
:10044000F08F00F011FB4FF4A06000F037FC4FF488
:10045000E13000F082FB00F06FF900F079FA002043
:1004600003F0F9FC012003F0F6FC284909684FF677
:10047000FF7202EA4100472100F00FFA00F0A0F9F4
:100480004021284800F097FD1021274800F091FDF9
:100490002021254800F08FFD244800682449B0FB46
:1004A000F1F0C4B223484168204688474FF47A707F
:1004B000FFF7BCFE05E01548008881B21E4801F038
:1004C000B5FEF8E74FF080439885104A11607047F9
:1004D0000B490860704710B5044600201049088099
:1004E000074804604FF47A70FFF7A0FE10BD0000CB
:1004F000300000201800002080842E4140000020A1
:1005000034000020200000202800002000000020EF
:10051000040000203C00002008000020E40100202E
:100520003800002000080140001001404800002071
:1005300040420F00D400002000040040704700BF7C
:10054000FEE700BFFEE700BFFEE700BFFEE7704723
:1005500070477047704700000CB500200190009074
:100560006C48006840F480306A49086000BF694800
:10057000006800F4003000900198401C0190009841
:1005800018B90198B0F5A06FF1D16248006800F485
:10059000003010B10120009001E000200090009890
:1005A000012843D15C48006840F010005A490860B7
:1005B0000846006820F0030008600846006840F024
:1005C0000200086053484068524948600846406845
:1005D00048600846406840F48060486008464068CB
:1005E00020F47C1048600846406840F4E8104860F9
:1005F0000846006840F08070086000BF4548006809
:1006000000F000700028F9D04248406820F0030054
:10061000404948600846406840F00200486000BF1A
:100620003C48406800F00C000828F9D10CBD10B51A
:10063000FFF792FF10BD10B53648006840F001008A
:1006400034490860084640683449084031494860E8
:1006500008460068324908402E490860084600688C
:1006600020F4802008600846406820F4FE004860BE
:100670004FF41F008860FFF7DAFF4FF00060294950
:10068000086010BD10B5002100200022214B5B68DE
:1006900003F00C0121B1042906D0082928D107E074
:1006A000214B224C236027E01F4B204C236023E08A
:1006B000184B5B6803F47010164B5B6803F48032D0
:1006C000022303EB904022B9194B4343174C23609C
:1006D0000DE0104B5B6803F4003323B1144B43432C
:1006E000124C236003E0104B4343104C236003E0A3
:1006F0000D4B0E4C236000BF00BF064B5B68C3F37D
:1007000003130C4CE15C094B1B68CB40074C236086
:1007100010BD000000100240002002400000FFF861
:10072000FFFFF6FE08ED00E000127A00480000200E
:1007300000093D004C00002008B501215C2000F0BC
:1007400047FE2020ADF8000010208DF803000320A4
:100750008DF802006946164800F07EFB20211448FF
:1007600000F027FC2020ADF800006946114800F099
:1007700073FB20210F4800F01CFCC020ADF80000E6
:1007800010208DF8030003208DF8020069460A4806
:1007900000F062FB3020ADF8000010208DF803005F
:1007A00003208DF802006946044800F055FB08BD9F
:1007B000000C0140001801400008014000100140F9
:1007C0001FB50121084600F010FE42F27100ADF89D
:1007D00008004720ADF804000020ADF80A00ADF88D
:1007E000060001A94FF0804000F02AFF01221146C7
:1007F000900701F09CFA1C208DF8000000208DF875
:10080000010003208DF8020001208DF803006846E6
:1008100000F059FA0121880701F06EFA1FBD10B5EA
:100820000121880701F031FDB0B30121880701F0F3
:100830003DFD3D483D49098850F821003C4908608C
:100840003A480088401C39490880084600883949E0
:100850000968884203DB3848006835490860344934
:100860000868C11700EB9171C1F38F01334A118001
:1008700010460188324801F059FE2D480068314980
:1008800091FBF0F02A490860084600684FF6FF71B6
:1008900001EA40002C49088010BD30B589B00546FA
:1008A0000C460121022000F0A0FD0121052000F0EE
:1008B0008FFD01214FF4D01000F09FFB8020ADF898
:1008C000200018208DF8230003208DF8220008A9AD
:1008D0001E4800F0C1FAADF81850ADF814400020E1
:1008E000ADF81A00ADF8160005A917482C3800F02D
:1008F000A7FE7020ADF804000120ADF8060000202E
:10090000ADF80C0001A910482C3800F018FF0821A0
:100910000D482C3801F029FB01210B482C3801F03F
:10092000EBF909B030BD0000E40100205C000020BC
:100930000000002038000020340000205E0000206D
:100940000038014040420F002C04004000080140E4
:1009500000B597B0012140F2E11000F039FD01210E
:10096000080200F028FD4FF63370ADF800001820A3
:100970008DF8030003208DF802006946364800F028
:100980006BFA4FF68370ADF800006946334800F00B
:1009900063FA4FF23F00ADF800006946304800F0BE
:1009A0005BFA40F23F40ADF8000069462D4800F088
:1009B00053FA00200190029003200390002004903D
:1009C00005900690079004200890002009900A9056
:1009D00010200B9000200C900E900D900F90109016
:1009E0004FF480501190002012901390149001A8A1
:1009F0001590169008A801F0ADFE0121042002F028
:100A000011F817B000BD10B506E004784FF0D043E0
:100A10005C54891C401C521E002AF6D110BD06E011
:100A20004FF0D0435B5C00F8013B891C521E002A4A
:100A3000F6D1704713B50C46012221466846FFF7F0
:100A4000E2FF1CBD18B50446012221466846FFF7A7
:100A5000E6FF9DF8000018BD001401400018014099
:100A6000001C01400020014010B56FF0040000F0B0
:100A700074F92E4800682E49B0FBF1F02D4908703A
:100A80000846007800EB4001C1EBC0104FF6FF7143
:100A900001EAC0002849088010BD0146254A1278A5
:100AA0004A434FF0E0235A6100229A611A461269C4
:100AB00042F001021A6100BF4FF0E022106900F01D
:100AC00001021AB100F48032002AF5D04FF0E02282
:100AD000126922F001024FF0E0231A6100229A61AC
:100AE00070470146144A12884A434FF0E0235A6186
:100AF00000229A611A46126942F001021A6100BF8F
:100B00004FF0E022106900F001021AB100F48032C7
:100B1000002AF5D04FF0E022126922F001024FF0D6
:100B2000E0231A6100229A6170470000480000200B
:100B300000127A006000002062000020014600BF21
:100B4000704700BF494A128802F04002002AF9D0DB
:100B5000C2B2464B1B1D1A80704710B586B00446C2
:100B6000012144F2040000F033FC4FF40070ADF8B2
:100B7000140003208DF8160018208DF8170005A921
:100B80003B4800F069F94FF48060ADF81400042090
:100B90008DF8170005A9364800F05EF925208DF87C
:100BA000000003208DF801008DF8020001208DF86F
:100BB0000300684600F087F801940020ADF80800B3
:100BC000ADF80A00ADF80C00ADF810000C20ADF83F
:100BD0000E0001A9254801F0B0FB012240F2255189
:100BE000224801F042FC0121204801F032FC06B00D
:100BF00010BD10B540F225511C4801F01BFD10B38B
:100C00001A4801F097FCC4B21A48008800F400406A
:100C1000C8B91848008800F4804060B10A2C03D09D
:100C200000201449088020E01248008840F4004069
:100C30001049088019E00D2C06D10E48008840F4B8
:100C400080400C49088010E00A480088C0F30D007D
:100C500009490C5407480088401C0649088008468A
:100C60000088C72801DD0020088010BD0038014041
:100C700000080140680000208411002009488047D6
:100C800009480047FEE7FEE7FEE7FEE7FEE7FEE76E
:100C9000FEE7FEE7FEE7FEE704480549054A064B86
:100CA000704700003706000831010008C0BC002072
:100CB000C0C20020C0BE0020C0BE00203149014398
:100CC000314A1160704770B5002100230F22C478AB
:100CD00004B32D4C246804F4E064C4F5E064210AF4
:100CE000C1F10403CA40447804FA03F18478144043
:100CF00021430901254C0678A155047804F01F050D
:100D00000124AC4005786D11AD0005F1E025C5F872
:100D1000004109E0047804F01F050124AC401C4D9B
:100D20000678761145F8264070BD1A4A0A400243FB
:100D3000154B1B1F1A60704739B1134A121D1268F8
:100D40000243114B1B1D1A6006E00F4A121D126868
:100D500082430D4B1B1D1A607047042808D14FF0C9
:100D6000E021096941F004014FF0E022116107E040
:100D70004FF0E021096921F004014FF0E0221161F8
:100D8000704700000000FA050CED00E000E400E010
:100D900080E100E080FFFF1F10B50446CC4884428C
:100DA00008D10121042000F02DFB0021042000F0D7
:100DB00029FB46E0C748844208D10121082000F001
:100DC00021FB0021082000F01DFB3AE0C2488442CC
:100DD00008D10121102000F015FB0021102000F0A7
:100DE00011FB2EE0BD48844208D10121202000F0F3
:100DF00009FB0021202000F005FB22E0B8488442D6
:100E000008D10121402000F0FDFA0021402000F02F
:100E1000F9FA16E0B348844208D10121802000F09D
:100E2000F1FA0021802000F0EDFA0AE0AE48844299
:100E300007D10121801500F0E5FA0021A01500F08E
:100E4000E1FA10BD10B50121084600F0DBFA0021DF
:100E5000012000F0D7FA10BD2DE9F041024600252F
:100E60000026002000230024002791F803C00CF086
:100E70000F0591F803C00CF0100CBCF1000F03D06B
:100E800091F802C04CEA050591F800C0BCF1000FD2
:100E900031D0146800202BE04FF0010C0CFA00F365
:100EA000B1F800C00CEA03069E4220D183004FF047
:100EB0000F0C0CFA03F7BC4305FA03FC4CEA0404DC
:100EC00091F803C0BCF1280F06D14FF0010C0CFAC9
:100ED00000FCC2F814C00AE091F803C0BCF1480F4E
:100EE00005D14FF0010C0CFA00FCC2F810C0401CF8
:100EF0000828D1D31460B1F800C0BCF1FF0F34DD75
:100F0000546800202EE000F1080C4FF0010808FAA8
:100F10000CF3B1F800C00CEA03069E4221D1830015
:100F20004FF00F0C0CFA03F7BC4305FA03FC4CEA34
:100F3000040491F803C0BCF1280F05D100F1080C9E
:100F400008FA0CF8C2F8148091F803C0BCF1480FFD
:100F500007D100F1080C4FF0010808FA0CF8C2F8AC
:100F60001080401C0828CED35460BDE8F0814FF6B5
:100F7000FF710180022181700421C1707047024617
:100F8000002093680B400BB1012000E00020704767
:100F90000146886880B2704702460020D3680B4043
:100FA0000BB1012000E0002070470146C86880B204
:100FB000704701617047416170470AB1016100E00B
:100FC00041617047C16070474FF480320A438261CB
:100FD0008161826182698269704702460020434BC9
:100FE00018684FF68073184040EA021008433F4BE0
:100FF000186070473E49C8617047F0B50A46002343
:1010000000240021002500F00046B6F1004F02D177
:10101000364EF16901E0354E7168C0F3034583B285
:1010200000F44016B6F5401F08D121F070612F4E34
:10103000766826F070662D4F7E6012E000F4801610
:10104000B6F5801F06D1032606FA05F4A14341F048
:10105000706106E0460D360103FA06F6B14341F031
:10106000706122B1460D360103FA06F6314300F0F5
:101070000046B6F1004F02D11C4EF16101E01B4E5B
:101080007160F0BD30B500228B071C0F0F2303FAEF
:1010900004F2164B08338C1053F824309343134C4E
:1010A00008348D1044F8253023468C1053F8243032
:1010B0008C07240F00FA04F423430C4C08348D10E1
:1010C00044F8253030BD0A49DC3108607047000023
:1010D00000080140000C01400010014000140140D4
:1010E00000180140001C01400020014000000140A8
:1010F00000002042DF48006840F00100DD49086040
:1011000008464068DC490840DA49486008460068FB
:10111000DA490840D74908600846006820F4802072
:1011200008600846406820F4FE0048604FF41F0045
:1011300088607047CF49096821F48031CD4A116039
:101140001146096821F480211160B0F5803F03D079
:10115000B0F5802F0ED106E0C649096841F4803110
:10116000C44A116007E0C349096841F4A021C14A9B
:10117000116000E000BF00BF704710B501460022BB
:10118000002300204A11012A02D1BA4C236806E04C
:10119000022A02D1B74C236A01E0B64C636A01F01F
:1011A0001F02012494401C400CB1012000E00020EB
:1011B00010BD38B5002000900024002500BF31206C
:1011C000FFF7DBFF05460098401C00900098B0F543
:1011D000A06F01D0002DF2D03120FFF7CEFF08B173
:1011E000012400E00024204638BD01460020A14A29
:1011F000106820F0F80040EAC10010607047A04974
:1012000008607047024600209A4B586820F47C1012
:1012100042EA01031843974B5860704798490866A3
:10122000704701460020934A506820F003000843AD
:10123000506070478F48406800F00C0070470146CE
:1012400000208C4A506820F0F0000843506070473E
:1012500001460020874A506820F4E060084350604F
:10126000704701460020834A506820F4605040EAED
:10127000C1005060704729B17E4A527A02437D4BCB
:101280005A7204E07B4A527A82437A4B5A72704710
:101290007B49D8310860704701460020754A506884
:1012A00020F440400843506070470021714A2032CA
:1012B0001170704A82F82010012802D004280AD147
:1012C00004E001216B4A2032117005E00521694AD2
:1012D0002032117000E000BF00BF7047694908600C
:1012E00070476449096A0143624A1162704765495F
:1012F00044390860704730B50021002200240023E3
:101300005C4D6D6805F00C0121B1042905D0082958
:1013100023D105E05C4D056022E05B4D05601FE0D8
:10132000544D6D6805F47012524D6D6805F48034AB
:10133000022505EB92421CB9544D554305600BE064
:101340004C4D6D6805F400351DB1504D5543056099
:1013500002E04D4D5543056002E04B4D056000BF76
:1013600000BF444D6D6805F0F0010909484D6B5C04
:101370000568DD4045603F4D6D6805F4E061090A90
:10138000434D6B5C4568DD4085603A4D6D6805F402
:101390006051C90A3E4D6B5C4568DD40C560354D06
:1013A0006D6805F44041890B3A4D6B5CC568B5FB2F
:1013B000F3F5056130BD29B12E4A526902432D4B28
:1013C0005A6104E02B4A526982432A4B5A617047A2
:1013D00029B1284A92690243264B9A6104E0254AC2
:1013E00092698243234B9A61704729B1214AD2699D
:1013F0000243204BDA6104E01E4AD26982431D4B4E
:10140000DA61704729B11B4AD2680243194BDA608E
:1014100004E0184AD2688243164BDA60704729B15B
:10142000144A12690243134B1A6104E0114A12690B
:101430008243104B1A617047124940390860704767
:101440000F49C86470470B49C87170470948406A22
:1014500040F0807007494862704701460020054A05
:1014600092680A400AB1012000E00020704701495B
:1014700088727047001002400000FFF8FFFFF6FE80
:10148000000042428004424200127A0000093D00FE
:101490006A0000207A00002010B50446FE4884420D
:1014A00008D10121C014FFF7ADFF0021E014FFF7C0
:1014B000A9FFC4E0B4F1804F08D101210846FFF72D
:1014C000AEFF00210120FFF7AAFFB8E0F3488442F5
:1014D00008D101210220FFF7A2FF00210220FFF71F
:1014E0009EFFACE0EE48844208D101210420FFF7C2
:1014F00096FF00210420FFF792FFA0E0E948844214
:1015000008D101210820FFF78AFF00210820FFF7FA
:1015100086FF94E0E448844208D101211020FFF7BF
:101520007EFF00211020FFF77AFF88E0DF48844229
:1015300008D101212020FFF772FF00212020FFF7B2
:101540006EFF7CE0DA48844208D101214014FFF7A5
:1015500059FF00216014FFF755FF70E0D548844221
:1015600009D10121C804FFF74DFF00214FF40020ED
:10157000FFF748FF63E0D048844209D10121080504
:10158000FFF740FF00214FF48010FFF73BFF56E0CC
:10159000CA48844209D101214805FFF733FF0021E1
:1015A0004FF40010FFF72EFF49E0C548844208D1F0
:1015B00001214020FFF733FF00214020FFF72FFFDC
:1015C0003DE0C048844208D101218020FFF727FF79
:1015D00000218020FFF723FF31E0BB48844208D17F
:1015E00001218015FFF71BFF0021A015FFF717FF52
:1015F00025E0B648844209D101210804FFF702FF23
:1016000000214FF48030FFF7FDFE18E0B04884421F
:1016100009D101214804FFF7F5FE00214FF4003005
:10162000FFF7F0FE0BE0AB48844208D101218804AB
:10163000FFF7E8FE00214FF48020FFF7E3FE10BD26
:1016400000220288944B98420ED0994B98420BD0BE
:10165000B0F1804F08D0914B984205D0904B984202
:1016600002D0904B984204D14FF68F731A404B88AA
:101670001A438D4B984207D08C4B984204D04FF6BA
:10168000FF431A40CB881A4302808B8883850B88DE
:101690000385814B98420BD0854B984208D08B4BE9
:1016A000984205D08A4B984202D08A4B984201D189
:1016B0000B7A038601238382704770B500240022D1
:1016C0000023058C4FF6FE7635400584028C838816
:1016D000048B4FF68F752C40B51E2C400D882C4383
:1016E000751E2A400D892A434D882A436A4DA84217
:1016F0000BD06F4DA84208D0744DA84205D0744D50
:10170000A84202D0734DA84213D14FF6F7752A4074
:101710004D892A434FF6FB752A408D882A434FF6A0
:10172000FF652B404FF6FF552B408D892B43CD890C
:101730002B4383800483CD888586028470BD70B579
:10174000002400220023058C4FF6EF7635400584F7
:10175000028C8388048B48F6FF752C404FF6FF45BA
:101760002C400D884FF6FF7606EA05252C434FF6F0
:10177000DF752A400D8906EA05152A434D8806EAD9
:1017800005152A43444DA84202D0494DA8421DD117
:101790004FF67F752A404D894FF6FF7606EA05150C
:1017A0002A434FF6BF752A408D8806EA05152A435D
:1017B0004FF6FF352B404FF2FF752B408D8906EA1F
:1017C00085052B43CD8906EA85052B438380048359
:1017D000CD880587028470BD70B5002400220023E7
:1017E000058C4FF6FF6635400584028C8388848B18
:1017F0004FF68F752C404FF6FC752C400D882C430E
:101800004FF6FF552A400D894FF6FF7606EA05256B
:101810002A434D8806EA05252A431F4DA84202D0D7
:10182000234DA8421DD14FF2FF752A404D894FF636
:10183000FF7606EA05252A434FF6FF352A408D88B4
:1018400006EA05252A434EF6FF752B404DF6FF7537
:101850002B408D8906EA05152B43CD8906EA05152F
:101860002B4383808483CD888587028470BD70B5C7
:10187000002200230024058C4EF6FF7635400584B7
:10188000038C8488828B48F6FF752A404FF6FF450B
:101890002A400D8820E00000002C01400004004098
:1018A00000080040000C0040001000400014004000
:1018B00000340140004C0140005001400054014000
:1018C00000180040001C0040002000400040014083
:1018D00000440140004801404FF6FF7606EA052526
:1018E0002A434DF6FF752B400D8906EA05352B433B
:1018F0004D8806EA05352B43FA4DA84202D0FA4D31
:10190000A84208D14BF6FF752C408D894FF6FF7623
:1019100006EA85152C4384808283CD88A0F8405048
:10192000038470BD828B4FF2FF331A408283828B17
:101930004FF6FF7303EA01231A4382837047F0B521
:101940000C461546002200210026078C4EF6FF7C2F
:1019500007EA0C070784828B018C4FF6FF7707EAB2
:10196000043640F6FF473A404FF6FF7707EA05276F
:101970003A434FF6FF7707EA03373A43D94FB84265
:101980000ED0D94FB8420BD0B0F1804F08D0D74F0E
:10199000B84205D0D64FB84202D0D64FB84206D191
:1019A0004DF6FF77394046F48057394305E047F656
:1019B000FF57394044F48057394382830184F0BD96
:1019C000828B4FF6F3731A408283828B0A438283A1
:1019D0007047F0B50C461546002200210026078C02
:1019E0004FF6FF6C07EA0C070784828B018C4FF6D9
:1019F000FF7707EA04264FF60C773A404FF6FF7759
:101A000007EA03172F433A43B64FB8420ED0B64FFA
:101A1000B8420BD0B0F1804F08D0B44FB84205D0D7
:101A2000B34FB84202D0B34FB84206D14FF6FF577A
:101A3000394046F48077394305E04FF2FF5739408B
:101A400044F48077394382830184F0BD028B4FF2E6
:101A5000FF331A400283028B4FF6FF7303EA012320
:101A60001A4302837047F0B50C4615460022002148
:101A70000026078C4FF6EF7C07EA0C070784028BE1
:101A8000018C4FF6FF7707EA041640F6FF473A400D
:101A90004FF6FF7707EA03373A434FF6FF7707EA37
:101AA00005273A438F4FB8420ED08F4FB8420BD024
:101AB000B0F1804F08D08D4FB84205D08C4FB8425E
:101AC00002D08C4FB84206D14FF6DF77394046F04E
:101AD0001007394305E04FF65F77394044F01007AF
:101AE000394302830184F0BD028B4FF6F3731A4031
:101AF0000283028B0A4302837047F0B50C461546F9
:101B000000220021068C4FF6FE773E400684028BB1
:101B1000018C4FF60C7632407E1C06EA03162E43EB
:101B20003243704EB0420ED06F4EB0420BD0B0F187
:101B3000804F08D06D4EB04205D06D4EB04202D0FD
:101B40006C4EB04206D14FF6FD76314044F00106AE
:101B5000314305E04FF6F576314044F0010631435C
:101B600002830184F0BD70B505460C465D48854290
:101B70000ED05D4885420BD0B5F1804F08D05B4850
:101B8000854205D05A48854202D05A48854200D144
:101B900000E000BF208850B92389A28861882846C8
:101BA000FFF7ABFFE1882846FFF79EFF25E020887E
:101BB00004280AD12389A28861882846FFF753FFA9
:101BC000E1882846FFF742FF17E0208808280AD15D
:101BD0002389A28861882846FFF7FBFEE188284612
:101BE000FFF7EEFE09E02389A28861882846FFF707
:101BF000A6FEE1882846FFF795FE70BD2DE9F0416D
:101C000005460C4600260127608808B9022600E038
:101C10000026A088012801D1022700E001272088A2
:101C2000A0B92389A28861882846FFF766FFE1886A
:101C30002846FFF759FF23893A4631462846FFF7E1
:101C400012FFE1882846FFF701FF13E02389A288ED
:101C500061882846FFF707FFE1882846FFF7F6FE70
:101C600023893A4631462846FFF747FFE188284650
:101C7000FFF73AFFBDE8F0810A884B881A438B884A
:101C80001A43CB881A430B891A434B891A438B8911
:101C90001A43A0F8442070474FF6FF71818000215D
:101CA0000180C18041800172704700210180418024
:101CB0008180C180018141818181C1817047002182
:101CC00001804180012181800021C1800181704714
:101CD0000021018041808180C18001814181818119
:101CE00070470000002C0140003401400004004017
:101CF00000080040000C004021B1028842F00102BF
:101D0000028004E002884FF6FE731A40028070479A
:101D100031B1B0F8442042F40042A0F8442005E07C
:101D2000B0F84420C2F30E02A0F8442070471AB164
:101D300083890B43838102E083898B4383817047CE
:101D40008182704741EA0203A0F8483070471AB117
:101D500083890B43838102E083898B4383817047AE
:101D600001894FF6F8721140018170470A4600213F
:101D700001894FF68F73194011430181704730B5C7
:101D800004460D4629462046FFF7F0FF208940F023
:101D90000700208130BD2DE9F04104460D4616466E
:101DA0001F46602D06D13B46012231462046FFF7F3
:101DB0005AFE05E03B46012231462046FFF79DFED4
:101DC00029462046FFF7D2FF208940F007002081F6
:101DD000BDE8F08130B50C4600210189C9B24FF64B
:101DE000FF7505EA0325154325432943018130BDCD
:101DF0002DE9F04105460E46174698460024434615
:101E00003A4631462846FFF7E5FF2C894FF6F87031
:101E1000044044F007044FF68F70044044F070040F
:101E20002C81BDE8F081F0B504460D4616461F46EC
:101E30003B46324629462046FFF7CCFF208940F436
:101E400080402081F0BD0185828270470A460021D2
:101E500001884FF68F731940114301807047F0B528
:101E60000C4615461E460021002200230189028BE4
:101E7000038C4FF6F877394021434FF6FC473A4040
:101E800040F201173A434FF6DD773B404FF6FF77BC
:101E900007EA06172F433B43018102830384F0BD09
:101EA0000A460021018B4FF68F73194011430183BD
:101EB00070470A460021018B48F6FF7319404FF620
:101EC000FF7303EA02231943018370470A46002186
:101ED000818B4FF68F7319401143818370470A46F7
:101EE0000021818B48F6FF7319404FF6FF7303EA18
:101EF000022319438183704721B1028842F0800296
:101F0000028004E002884FF67F731A400280704717
:101F100021B1828842F00402828004E082884FF678
:101F2000FB731A408280704721B1828842F0080218
:101F3000828004E082884FF6F7731A4082807047EF
:101F400021B1828842F00102828004E082884FF64B
:101F5000FE731A40828070470A460021018B4FF6BB
:101F6000F77319401143018370470A460021018B22
:101F70004FF2FF7319404FF6FF7303EA0223194330
:101F8000018370470A460021818B4FF6F773194091
:101F90001143818370470A460021818B4FF2FF7302
:101FA00019404FF6FF7303EA0223194381837047F8
:101FB0000A460021018B4FF6FB7319401143018340
:101FC00070470A460021018B4FF6FF3319404FF648
:101FD000FF7303EA02231943018370470A46002175
:101FE000818B4FF6FB7319401143818370470A467A
:101FF0000021818B4FF6FF3319404FF6FF7303EA40
:1020000002231943818370470A460021018B4FF652
:102010007F7319401143018370470A460021018BE9
:10202000C1F30E014FF6FF7303EA02231943018344
:1020300070470A460021818B4FF67F731940114388
:10204000818370470A460021818BC1F30E014FF650
:10205000FF7303EA02231943818370470A46002174
:10206000018C4FF6FD7319401143018470470A46F5
:102070000021018C4FF6F77319401143018470471A
:102080000A460021018C4FF6DF7319404FF6FF73AB
:1020900003EA02131943018470470A460021018CA8
:1020A0004FF67F7319404FF6FF7303EA021319438B
:1020B000018470470A460021018C4FF6FF531940F6
:1020C0004FF6FF7303EA02231943018470470A465F
:1020D0000021018C4FF2FF7319404FF6FF7303EAA2
:1020E00002231943018470470A460021018C4DF6F2
:1020F000FF7319404FF6FF7303EA0233194301845B
:10210000704730B5002301248C40A3B2048C9C435B
:102110000484048C02FA01F5ADB22C43048430BD72
:1021200030B5002304248C40A3B2048C9C43048467
:10213000048C02FA01F5ADB22C43048430BD70B5B5
:102140000346002000241846183001258D40ACB20B
:102150001D8CA5431D8409B1082909D100EB61003C
:10216000056825F0700505600568154305600EE0FB
:102170000D1FC5F34E052844056825F4E0450560AC
:1021800005684FF6FF7606EA02263543056070BD06
:1021900021B1028842F00202028004E002884FF678
:1021A000FD731A400280704721B1028842F0040298
:1021B000028004E002884FF6FB731A4002807047E9
:1021C00021B1828842F08002828004E082884FF64A
:1021D0007F731A408280704702884FF6F7731A4067
:1021E000028002880A430280704782884FF68F730C
:1021F0001A40828082880A438280704702894FF6A3
:10220000F8731A40028102890A43028170470289E9
:102210004FF67F731A40028102890A430281704798
:102220008184704781857047818670470187704738
:1022300081877047A0F84010704702884FF6FF432F
:102240001A40028002880A43028070470146888E45
:1022500070470146088F70470146888F70470146D6
:10226000B1F8400070470146888C70470146088DE0
:10227000704702460020138A0B400BB1012000E09A
:1022800000207047CA430282704730B502460020E2
:1022900000230024158A05EA0103958905EA010453
:1022A00013B10CB1012000E0002030BDCA4302820E
:1022B0007047000010B50446FB48844209D1012153
:1022C0008803FFF79FF800214FF48040FFF79AF84A
:1022D00032E0F648844209D101214804FFF79FF813
:1022E00000214FF40030FFF79AF825E0F0488442CF
:1022F00009D101218804FFF792F800214FF48020D2
:10230000FFF78DF818E0EB48844209D10121C80499
:10231000FFF785F800214FF40020FFF780F80BE06D
:10232000E548844208D101210805FFF778F800212B
:102330004FF48010FFF773F810BD2DE9F04786B019
:1023400005460E460024A24600BFA1460027B089DC
:1023500000B100BF2F462C8A4CF6FF700440F08875
:1023600004432C82AC894EF6F3100440B0883189C6
:102370000843718908430443AC81AC8A4FF6FF409F
:102380000440B0890443AC8201A8FEF7B4FFC648FC
:10239000874202D1DDF810A001E0DDF80CA0A88989
:1023A00000F4004040B10AEBCA0000EB0A103168AB
:1023B0004900B0FBF1F807E00AEBCA0000EB0A1095
:1023C00031688900B0FBF1F86420B8FBF0F004013B
:1023D0002009642101FB1089A88900F4004040B164
:1023E000322000EBC900B0FBF1F000F0070004431D
:1023F00008E0322000EB09106421B0FBF1F000F09E
:102400000F0004432C8106B0BDE8F0874FF416514D
:10241000016000218180C18001810C214181002166
:102420008181704710B502460020108A4FF2FF03E9
:1024300018400B884C8823438C882343CC88234343
:102440001843108210BD0021018041808180C1802D
:10245000704721B1828942F40052828104E082896E
:102460004DF6FF731A4082817047F0B50346002491
:1024700000260025002040F66A17B94200D100BFAF
:102480001846C1F3421401F01F06012707FA06F5AA
:10249000012C01D10C3004E0022C01D1103000E0FD
:1024A00014301AB107682F43076002E00768AF4392
:1024B0000760F0BD1AB1838A0B43838202E0838AEE
:1024C0008B4383827047028A4FF6F0731A40028270
:1024D000028A0A430282704782894FF2FF731A40D0
:1024E000828182890A438281704721B1828942F0C8
:1024F0000202828104E082894FF6FD731A408281D4
:102500007047028A4FF6DF731A400282028A0A433A
:102510000282704721B1028A42F48042028204E0C2
:10252000028A4BF6FF731A4002827047C1F3080219
:102530008280704701468888C0F30800704781890F
:1025400041F0010181817047028BD2B20283028B7C
:1025500042EA012202837047028B02F47F42028327
:10256000028B0A430283704721B1828A42F0200223
:10257000828204E0828A4FF6DF731A4082827047BB
:1025800021B1828A42F01002828204E0828A4FF6F0
:10259000EF731A408282704721B1828A42F00802AA
:1025A000828204E0828A4FF6F7731A408282704773
:1025B00021B1828942F40042828103E08289C2F320
:1025C0000E028281704721B1828A42F400628282C7
:1025D00004E0828A4FF2FF731A4082827047828A37
:1025E0004FF6FB731A408282828A0A4382827047C6
:1025F00021B1828A42F00202828204E0828A4FF68E
:10260000FD731A408282704702460020B1F5007FB8
:1026100000D100BF13880B400BB1012000E0002067
:10262000704701F40072B2F5007F00D100BFCA43C9
:102630000280704770B50246002400230025002068
:1026400040F66A16B14200D100BFC1F3421501F055
:102650001F03012606FA03F3012D02D196893340A8
:1026600006E0022D02D1168A334001E0968A3340FB
:102670000C12012606FA04F41688344013B10CB18A
:10268000012000E0002070BD10B50022002340F6BC
:102690006A14A14200D100BF0A1201249440A3B2DF
:1026A000DC43048010BD00000038014000440040BD
:1026B00000480040004C00400050004030B943F258
:1026C000DB028100A1F1C0410A6005E043F2D202C1
:1026D0008100A1F1C0410A606FF07042411C890085
:1026E000A1F1C0410A608100A1F1C041C1F80421FB
:1026F000704710280AD118214FF02042116640215E
:1027000051664FF0FC319166D16610E01821F74A0E
:10271000116040214FF02042C2F884104FF0FC318C
:10272000F24A083211604FF02042C2F88C10704714
:102730001820EE492031086000200906C1F8A400E5
:102740004FF0FC30E94928310860091D0860091D77
:1027500008607047D0E901121143C2681143026951
:1027600011434269114382691143C2691143026AEC
:102770001143426A1143826A1143C26A1143026BD8
:10278000114302689200A2F1C042116081680829D9
:102790000BD101688900A1F1C041096841F04002F4
:1027A00001688900A1F1C0410A60416B0968426B70
:1027B000526841EA0211426B926841EA0221426B7F
:1027C000928941EA0241426B128A41EA0251426B0C
:1027D000127D41EA0261426B926911430268521C08
:1027E0009200A2F1C0421160C16AB1F5804F1BD1C5
:1027F000816B0968826B526841EA0211826B9268B0
:1028000041EA0221826B128A41EA0251826B127DF7
:1028100041EA0261826B9269114302689200A2F15F
:10282000C042C2F8041107E06FF0704201688900ED
:10283000A1F1C041C1F80421704730B50021002248
:102840000023446844F0080485682C43C5682C4381
:1028500005692C43456944EA4524856944EA4531C4
:10286000C4692468C5696D6844EA0524C5692D8971
:1028700044EA0544C5692D7B44EA0562046A24687C
:10288000056A6D6844EA0524056A2D8944EA054411
:10289000056A2D7B44EA05630468102C05D14FF0CE
:1028A00020442166A266E36608E0904C21604FF068
:1028B0002044C4F888208D4C0C34236030BD01685E
:1028C00041F01001426841EA4221826841EA423106
:1028D000864A20321160C1680968C268526841EABC
:1028E0000221C268128941EA0241C268127B41EAB0
:1028F00002617E4A283211600169096802695268E2
:1029000041EA02210269128941EA02410269127B0D
:1029100041EA0261754A2C321160416909684269D5
:10292000526841EA02214269128941EA0241426940
:10293000127B41EA02614FF02042C2F8B0107047AA
:10294000002101600221416000218160C1600161BC
:1029500041618161C16101624FF48051416249006E
:1029600081620021C16201630F21426B1160426BE1
:102970005160FF21426B91600F21426BD160426B2D
:102980001161426B51610021426B91610F21826B99
:102990001160826B5160FF21826B91600F21826B0D
:1029A000D160826B1161826B51610021826B9161F8
:1029B000704710210160002141608160C1600161A8
:1029C00041618161FC21C2691160C2695160C269C3
:1029D0009160C269D160026A1160026A5160026A44
:1029E0009160026AD160704700210160416081609E
:1029F000FC21C2681160C2685160C2689160C268FF
:102A0000D1600269116002695160026991600269D6
:102A1000D1604269116042695160426991604269C6
:102A2000D160704751B18200A2F1C042126842F0F9
:102A300001038200A2F1C042136009E08200A2F10A
:102A4000C04212682A4B1A408300A3F1C0431A60A7
:102A5000704799B1102808D14FF02042126E42F011
:102A600004024FF020431A661DE0204A126842F02B
:102A700004024FF02043C3F8802014E0102809D14D
:102A80004FF02042126E1A4BDB1E1A404FF02043CB
:102A90001A6608E0154A1268154BDB1E1A404FF003
:102AA0002043C3F88020704748B11049203109689D
:102AB00041F004014FF02042C2F8A01009E00B4998
:102AC000203109680A4AD21E11404FF02042C2F854
:102AD000A0107047B9B110280CD14FF02042126EEF
:102AE00042F040024FF020431A661FE0800000A031
:102AF000FEFF0F00724A126842F040024FF020437E
:102B0000C3F8802012E0102808D14FF02042126E46
:102B10006C4B1A404FF020431A6607E0684A12686F
:102B2000684B1A404FF02043C3F88020704701469D
:102B30000020102903D14FF02042506F02E0604A7C
:102B400014321068704710B5F2B1102807D14FF059
:102B500020435B6E0B434FF02044636632E0B0F5D8
:102B6000807F08D1564B1B1D1B680B434FF0204440
:102B7000C4F8843026E0524B24331B680B434FF0DB
:102B80002044C4F8A4301DE0102807D14FF02043A2
:102B90005B6E8B434FF02044636613E0B0F5807F9B
:102BA00008D1474B1B1D1B688B434FF02044C4F8D2
:102BB000843007E0424B24331B688B434FF02044A2
:102BC000C4F8A43010BD10B5024600200023102A1E
:102BD00003D14FF02044636E09E0B2F5807F03D14A
:102BE000374C241D236802E0354C2434236803EA63
:102BF00001040CB1012000E0002010BD102807D115
:102C00004FF02042526E8A434FF020435A6613E041
:102C1000B0F5807F08D12A4A121D12688A434FF00E
:102C20002043C3F8842007E0254A243212688A43EF
:102C30004FF02043C3F8A420704770B5024600202F
:102C4000002300240025102A03D14FF02046736E84
:102C500009E0B2F5807F03D1194E361D336802E0DA
:102C6000174E2436336803EA010403EAD10514B190
:102C70000DB1012000E0002070BD102808D14FF0F8
:102C80002042526E22EAD1024FF020435A6615E0EC
:102C9000B0F5807F09D10A4A121D126822EAD102DA
:102CA0004FF02043C3F8842008E0054A243212681C
:102CB00022EAD1024FF02043C3F8A420704700005D
:102CC000800000A0BFFF0F0010B58CB004461E238B
:102CD0000BAA03A9204600F0ABFE0090009810B1AB
:102CE00001200CB010BD9DF82C00044400200B9076
:102CF0000EE040489DF82C2050F8221003A800F068
:102D0000FFFD00B908E09DF82C00401CC0B20B90FC
:102D10009DF82C000728ECD300BF9DF82C00072855
:102D200063D2DFE800F004053C5E6564630000BF29
:102D300031A001F091F931A001F08EF93FA001F02E
:102D40008BF94EA001F088F95CA001F085F96BA029
:102D500001F082F979A001F07FF986A001F07CF9F9
:102D60008BA001F079F990A001F076F994A001F020
:102D700073F999A001F070F99EA001F06DF9A4A07B
:102D800001F06AF9B0A001F067F9BDA001F064F9A3
:102D9000C8A001F061F9D4A001F05EF99AE216A092
:102DA00001F05AF9E0A001F057F900200B900EE075
:102DB000ED4800689DF82C2000EBC2004168EBA0B4
:102DC00001F04AF99DF82C00401CC0B20B90E64877
:102DD000007D9DF82C108842EADC07A001F03CF948
:102DE00078E205A001F038F9C4E171E245E219E2A8
:102DF000ECE10000800000200D0A00002D2D2D2D9B
:102E00002D2D2D2D2D2D2D2D2D2D2D2D2D2D2D2DF2
:102E10002D2D2D2D55534D4152542056332E312DED
:102E20002D2D2D2D2D2D2D2D2D2D2D2D2D2D2D2DD2
:102E30002D2D2D2D2D2D2D200D0A000020202020A0
:102E400055534D415254CAC7D3C9414C49454E54BC
:102E5000454BBFAAB7A2B5C4D2BBB8F6C1E9C7C932
:102E6000B5C4B4AEBFDAB5F7CAD4BBA5BDBBD7E90C
:102E7000BCFE2CCDA8B9FD200D0A0000CBFC2CC453
:102E8000E3BFC9D2D4CDA8B9FDB4AEBFDAD6FACA71
:102E9000D6B5F7D3C3B3CCD0F2C0EFC3E6B5C4C840
:102EA000CEBACEBAAFCAFD2CB2A2D6B4D0D02ED2F2
:102EB000F2B4CB2CC4E3BFC90D0A0000D2D4CBE6D8
:102EC000D2E2B8FCB8C4BAAFCAFDB5C4CAE4C8EB14
:102ED000B2CECAFD28D6A7B3D6CAFDD7D628313080
:102EE0002F3136BDF8D6C629A1A2D7D6B7FBB4AECE
:102EF000A1A2BAAFCAFDC8EB0D0A0000BFDAB5D86F
:102F0000D6B7B5C8D7F7CEAAB2CECAFD292CB5A57B
:102F1000B8F6BAAFCAFDD7EEB6E0D6A7B3D6313011
:102F2000B8F6CAE4C8EBB2CECAFD2CB2A2D6A7B39B
:102F3000D6BAAFCAFDB7B5200D0A0000BBD8D6B5CA
:102F4000CFD4CABE2ED0C2D4F6B2CECAFDCFD4CA18
:102F5000BEBDF8D6C6C9E8D6C3B9A6C4DC2CD0C25B
:102F6000D4F6BDF8D6C6D7AABBBBB9A6C4DC2E0D15
:102F70000A000000BCBCCAF5D6A7B3D63A7777776B
:102F80002E6F70656E6564762E636F6D0D0A00009E
:102F900055534D415254D3D037B8F6CFB5CDB3C306
:102FA000FCC1EE3A0D0A00003F3A202020202020EC
:102FB000BBF1C8A1B0EFD6FAD0C5CFA20D0A000070
:102FC00068656C703A202020BBF1C8A1B0EFD6FA3A
:102FD000D0C5CFA20D0A00006C6973743A2020207E
:102FE000BFC9D3C3B5C4BAAFCAFDC1D0B1ED0D0AD4
:102FF0000A00000069643A2020202020BFC9D3C302
:10300000BAAFCAFDB5C44944C1D0B1ED0D0A0A003A
:103010006865783A20202020B2CECAFD3136BDF84E
:10302000D6C6CFD4CABE2CBAF3B8FABFD5B8F12BE6
:10303000CAFDD7D6BCB4D6B4D0D0BDF8D6C6D7AAB0
:10304000BBBB0D0A0A0000006465633A2020202003
:10305000B2CECAFD3130BDF8D6C6CFD4CABE2CBA66
:10306000F3B8FABFD5B8F12BCAFDD7D6BCB4D6B4E5
:10307000D0D0BDF8D6C6D7AABBBB0D0A0A00000047
:1030800072756E74696D653A312CBFAAC6F4BAAF19
:10309000CAFDD4CBD0D0BCC6CAB13B302CB9D8B154
:1030A000D5BAAFCAFDD4CBD0D0BCC6CAB13B0D0A8D
:1030B0000A000000C7EBB0B4D5D5B3CCD0F2B1E074
:1030C000D0B4B8F1CABDCAE4C8EBBAAFCAFDC3FBFD
:1030D000BCB0B2CECAFDB2A2D2D4BBD8B3B5BCFC90
:1030E000BDE1CAF82E0D0A002D2D2D2D2D2D2D2DD3
:1030F0002D2D2D2D2D2D2D2D2D2D2D2D2D2D2D2D00
:103100002D2D414C49454E54454B2D2D2D2D2D2D0A
:103110002D2D2D2D2D2D2D2D2D2D2D2D2D2D2D2DDF
:103120002D2D2D200D0A00002D2D2D2D2D2D2D2D79
:103130002D2D2D2D2D2D2D2D2D2D2D2D2D2D2D2DBF
:103140002DBAAFCAFDC7E5B5A52D2D2D2D2D2D2DE1
:103150002D2D2D2D2D2D2D2D2D2D2D2D2D2D2D2D9F
:103160002D2D2D2D200D0A00D400002025730D0AD1
:1031700000000000EFA000F06FFF00200B901AE0AD
:10318000FC4909689DF82C2001EBC20101AB02AAA1
:10319000486803A900F072FCF64800689DF82C10FE
:1031A00050F8312003A9F4A000F056FF9DF82C0040
:1031B000401CC0B20B90EF48007D9DF82C10884257
:1031C000DEDCAFF2CC3000F047FF83E0AFF2D83066
:1031D00000F042FF0BAA03A9204600F02BFD9DF84A
:1031E0002C00C8B9694603A800F0BDFB0B909DF800
:1031F0002C0020B9E5A0009900F02EFF0EE09DF80C
:103200002C00042801D002206BE5E3A000F024FF8D
:103210000120D849C87501E0022062E5DDA000F078
:103220001BFF57E0DBA000F017FF0BAA03A9204605
:1032300000F000FD9DF82C00C8B9694603A800F015
:1032400092FB0B909DF82C0020B9D8A0009900F0BB
:1032500003FF0EE09DF82C00042801D0022040E579
:10326000D5A000F0F9FE0020C249C87501E0022097
:1032700037E5C8A000F0F0FE2CE0C6A000F0ECFEA0
:103280000BAA03A9204600F0D5FC9DF82C00C8B974
:10329000694603A800F067FB0B909DF82C0078B9F5
:1032A000B449009881F8EC00084690F8EC0018B199
:1032B000C6A000F0D1FE07E0CBA000F0CDFE03E0F9
:1032C00002200EE502200CE5B2A000F0C5FE01E0F0
:1032D000012006E500BF002003E510B50121C94823
:1032E000FEF7D0FF4FF6FF71C648FEF79BFF0021A7
:1032F000C448FEF795FF00209E49C1F8F00010BDBC
:1033000010B50121BF48FEF7B4FF012808D1994844
:10331000D0F8F0004FF6FF7108449649C1F8F0006C
:10332000B848FEF7A0FF9349D1F8F010084491493E
:10333000C1F8F0000846D0F8F00010BD10B501212A
:10334000B048FEF7A2FF01280AD18A4908698047E0
:103350000021AC48FEF764FF6421AA48FEF762FF33
:103360000121A848FEF7A2FF10BD7FB505460C4617
:1033700001210420FEF739F8ADF80850ADF80440FB
:103380000020ADF80A00ADF8060001A99D48FEF73F
:1033900057F9012241219B48FEF7C9FC1E208DF8F8
:1033A000000003208DF801008DF8020001208DF847
:1033B00003006846FDF787FC01219248FEF79CFC5C
:1033C0007FBD10B5044604EBC40000EB04100122DD
:1033D000C2EB800081B24FF47A70FFF7C6FF012084
:1033E0006449C87510BD30B595B0054613AB12AA37
:1033F00009A9284600F042FB044614B1204615B046
:1034000030BD0020149026E05A4909689DF85020EC
:1034100001EBC20113AB11AA486801A900F02EFB11
:1034200004460CB12046EAE709A901A800F068FAB1
:1034300060B99DF844009DF84810884201DD0220E3
:10344000DDE79DF850004B4988750AE09DF8500073
:10345000401CC0B214904748007D9DF8501088422F
:10346000D2DC00BF4348007D9DF85010884201D156
:103470000420C4E714A9284600F04DFC04460CB112
:103480002046BCE79DF850003A4948750020B6E751
:103490002DE9F0419AB03748847D007DA04202DCDE
:1034A0001AB0BDE8F0813349096801EBC40106ABED
:1034B00007AA486808A900F0E1FA08A952A000F09C
:1034C000CBFD0026BAE02B48008B0121B14008401B
:1034D000D8B122214EA000F0BFFD304600F00EFC16
:1034E00024492431471839464AA000F0B5FD22216D
:1034F00047A000F0B1FD304600F000FC1D4924312A
:10350000084410A941F826008EE0304600F0F6FB92
:1035100018492431085810A941F826001548C07DE3
:1035200030B910A850F826103BA000F095FD7BE0C4
:1035300074E000002D2D2D2D2D2D2D2D2D2D2D2D1B
:103540002D2D2D2D2D2D2D2D2D2D2D2D2DBAAFCAFF
:10355000FD204944202D2D2D2D2D2D2D2D2D2D2DB2
:103560002D2D2D2D2D2D2D2D2D2D2D2D2D2D2D2D8B
:10357000200D0A00D400002025732069642069739F
:103580003A0D0A3058253038580D0A004845583A47
:10359000305825580D0A00003136BDF8D6C6B2CED7
:1035A000CAFDCFD4CABE210D0A0000004445433AEB
:1035B000256C750D0A0000003130BDF8D6C6B2CEBC
:1035C000CAFDCFD4CABE210D0A00000052756E207C
:1035D00054696D652043616C63756C6174696F6ECD
:1035E000204F4E0D0A00000052756E2054696D6523
:1035F0002043616C63756C6174696F6E204F464641
:103600000D0A0000000800400D0A25732800000084
:103610002563000025730000256C750010A850F884
:10362000261095A000F018FD9DF81C00401EB04229
:1036300002D093A000F010FD701CC6B29DF81C00D3
:103640008642FFF640AF8FA000F006FDFFF745FE73
:103650008D48407D0B280DD2DFE800F0060D151EC9
:1036600027323F4E5F7287008749096851F834005E
:103670008047054690E0844A126852F8341010984A
:103680008847054688E0804B1B6853F83420DDE905
:103690001001904705467FE07B4F3F6857F8343074
:1036A00010A807C89847054676E0DFF8DCC1DCF8CB
:1036B00000C05CF8347010A80FC8B84705466BE02E
:1036C0001498DFF8C4C10090DCF800C05CF83470D6
:1036D00010A80FC8B84705465EE0DDE91401DFF821
:1036E000A8C1CDE90001DCF800C05CF8347010A876
:1036F0000FC8B84705464FE0DDE914121698DFF809
:1037000088C1CDE900120290DCF800C05CF834708A
:1037100010A80FC8B84705463EE0DDE91423DDE9EF
:103720001610DFF864C1CDE90023CDE90210DCF802
:1037300000C05CF8347010A80FC8B84705462BE0ED
:10374000DDE91523DDE91710CDE90123CDE90310EB
:103750001498DFF834C10090DCF800C05CF83470D5
:1037600010A80FC8B847054616E0DDE91623DDE9C5
:103770001810CDE90223CDE90410DDE91401DFF8CA
:1037800008C1CDE90001DCF800C05CF8347010A875
:103790000FC8B847054600BF00BFFFF7B1FD9DF851
:1037A000180001280CD13848C07D20B9294637A01F
:1037B00000F052FC07E0294636A000F04DFC02E084
:1037C00033A000F049FC304890F8EC0088B12E4856
:1037D000D0F8F0000A21B0FBF1F201FB12072A48F1
:1037E000D0F8F000B0FBF1F83A4641462CA000F0CA
:1037F00033FC00BF54E670B53148008800F4004047
:10380000002833D02E48057800202E4948551E4800
:1038100081682C48884704461CB91B49C868804702
:1038200021E02848FFF750FA0546012D00D02C462C
:10383000CCB1012C06D0022C08D0032C0AD0042CC9
:1038400010D10BE020A000F007FC0BE021A000F05D
:1038500003FC07E022A000F0FFFB03E023A000F040
:10386000FBFB00BF00BF00201549088070BD01466A
:103870000868704701607047305825580000000004
:103880002C00000029000000D40000203D256C75AC
:103890003B0D0A003D305825583B0D0A0000000042
:1038A00046756E6374696F6E2052756E2054696D33
:1038B000653A25642E2531646D730D0A0000000001
:1038C0006800002084110020BAAFCAFDB4EDCEF329
:1038D000210D0A00B2CECAFDB4EDCEF3210D0A00CF
:1038E000B2CECAFDCCABB6E0210D0A00CEB4D5D223
:1038F000B5BDC6A5C5E4B5C4BAAFCAFD210D0A0061
:1039000002460AE010780B78984201D001207047F7
:10391000107800B902E0521C491CF3E700BF0020F8
:10392000F5E706E002780A70027802B902E0401C6E
:10393000491CF7E700BF70470146002005E00A7800
:1039400002B903E0421CD0B2491CF8E700BF70473F
:1039500010B50246012000E050430B1EA1F1010406
:10396000E1B2F9D110BD2DE9F04307460E4600251E
:103970004FF00A083C46002030601FE020783928CC
:1039800002DC207830280ADA2078462802DC207809
:10399000412804DA2078582809D1012D07D1207850
:1039A000412801DB4FF01008681CC5B205E0207803
:1039B00000B904E00120BDE8F083641CDEE700BF2D
:1039C0003C46B8F1100F0FD1032D01DA0220F2E7C7
:1039D0002078302806D16078582803D1A41CA81E6E
:1039E000C5B204E00320E6E70DB90420E3E71BE0DD
:1039F0000DB1681EC5B22078392806DC2078302841
:103A000003DB2078A0F1300902E02078A0F137092B
:103A100029464046FFF79CFF316809FB00103060E3
:103A2000641C207800B900E0E2E700BF0020C2E794
:103A300010B50446002010700BE020780870641C5C
:103A4000491C1078401C10701078984201DB01204E
:103A500010BD2078202802D020780028EDD1002049
:103A6000087000BFF4E70146491C00E0491C0878D3
:103A7000202801D10029F9D1087870472DE9FF4F9E
:103A800085B08046894600270020049003900120DD
:103A900002904FF0000B002544461DE020782028BE
:103AA00016D005F07F00052812DA0DB945F0800523
:103AB00005F07F00042803D120782A2800D00EE0EA
:103AC000207805F07F010DF80100681CC5B202E006
:103AD000852D00D103E0641C20780028DED100BFD2
:103AE0008DB1002005F07F010DF80100CBA16846E3
:103AF000FFF706FF18B900210898017002E00121C4
:103B00000898017000254FF0000A444614E0641C38
:103B10000AF1010000F0FF0A2078202802D0207866
:103B20002A2809D12046FFF79EFF0646282E03D0FB
:103B30002A2E01D0CDF810A02078282802D0207895
:103B40000028E4D14446049810B10498401C044471
:103B50004FF0000A002654E0207810B94FF0010A17
:103B600050E02078282803D116B9781CC7B213E09A
:103B70002078292808D13EB917B1781EC7B201E0D4
:103B80004FF0010A47B93DE02078222804D10EB950
:103B9000012000E00020064647B9207820282FD0D9
:103BA000207889F8000009F1010929E020782C2803
:103BB00004D101200290681CC5B214E020782028AE
:103BC00011D0207828280ED04DB9BBF1050F06DAA8
:103BD00020780DF80B000BF1010000F0FF0B0298AC
:103BE000401CC0B20290012F0AD10298022807D1CE
:103BF0000298401CC0B202900398401CC0B20390CF
:103C0000641CA9E700BF0398012809D100200DF822
:103C10000B0082A16846FFF773FE08B900200390ED
:103C2000079903980870002089F80000504609B0F1
:103C3000BDE8F08FF0B503461546002000220026AF
:103C4000002455E01F782C2F01D104B901221F78E0
:103C5000292F01D01F780FB904B94AE0002E34D1C2
:103C60001F78302F02DB1F78392F11DD1F78612F6D
:103C700002DB1F78662F0BDD1F78412F02DB1F78D8
:103C8000462F05DD1F78582F02D01F78782F0CD1D2
:103C900002B12EE01F78612F03DB1F78203F0F70E9
:103CA00001E01F780F70491C1FE01F78222F04D1FC
:103CB00002B11EE00126012417E01F78202F14D046
:103CC0001F782C2F11D0FF2613E01F78222F00D150
:103CD000002402B10DE044B11F785C2F02D15B1CBF
:103CE000471CF8B21F780F70491C471CF8B25B1CC8
:103CF000A8E700BF00270F702E70F0BD024600201D
:103D0000002105E0474B5B5C0344D8B24B1CD9B2A1
:103D10009142F7DB70472DE9F043B5B005460F46F9
:103D20000024002604E000213E488155701CC6B2E4
:103D30000A2EF8DB06E06D1C287818B9012035B092
:103D4000BDE8F08328782828F5D16D1C61E034AAFD
:103D500069462846FFF76EFF064635449DF8D000B9
:103D600020B1012827D0FF284CD149E09DF8000060
:103D700000B333A96846FFF7F6FD06460EB10220F0
:103D8000DDE72046FFF7BAFF26490A31339A0A5089
:103D9000A1F12400008B0121A140884321491A3957
:103DA000088304211F480155601CC4B20A2C01DDA0
:103DB0000320C4E726E06846FFF7BEFD401C00F084
:103DC000FF082046FFF79AFF16490A3100EB010968
:103DD00049466846FFF7A5FD12481A38018B0120B5
:103DE000A040014388B20F491A3908830D4800F8F2
:103DF0000480601CC4B20A2C01DD03209FE701E0AF
:103E000002209CE700BF2878292801D0287800B933
:103E100000E09CE700BF3C70002090E7766F69648B
:103E200000000000EE00002070B503460C4603E0E1
:103E300014F8015B03F8015B151EA2F10102F7D132
:103E400070BD30B5034601E003F8011B141EA2F15A
:103E50000102F9D130BD10B504467A4951F8241059
:103E60004A00794951F824000021FFF7EAFF774919
:103E700051F824207449083951F824000021FFF733
:103E8000E0FF012170480830015510BD10B5014612
:103E90000023002207E06C4850F8210030F812009F
:103EA00000B15B1C521C674850F821009042F2D8C8
:103EB00064205843634C54F82140B0FBF4F0C0B286
:103EC00010BD2DE9F04704460F460025A9465E487F
:103ED0000830005D20B95C481038016820468847EA
:103EE0001FB94FF0FF30BDE8F087594850F8240063
:103EF000B7FBF0F6564850F82400B7FBF0F100FB92
:103F0000117000B1761C4F4850F82400451E20E087
:103F10004D4850F8240030F8150010B909F1010996
:103F200001E04FF00009B14512D14FF0000808E060
:103F3000454850F8240005EB080220F8126008F10B
:103F40000108B045F4D3424850F824006843CAE75A
:103F50006D1E002DDCDA4FF0FF30C4E72DE9F04193
:103F600004460E4638480830005D38B936481038E7
:103F70000168204688470120BDE8F081334850F8A9
:103F80002400B04217D9324850F82400B6FBF0F1B3
:103F90002D4850F8240030F81120002507E00023B8
:103FA000294850F824004F1920F817306D1C95420D
:103FB000F5DB0020E0E70220DEE770B505460C46A1
:103FC00004B970BD2048083850F82500261A31463B
:103FD0002846FFF7C3FF00BFF3E770B504460E465F
:103FE00031462046FFF76DFF0546681C08B90020E2
:103FF00070BD1548083850F824002844F8E72DE92A
:10400000F04104460F46164631462046FFF759FF59
:104010000546681C10B90020BDE8F0810A4908393E
:1040200051F82410481932463946FFF7FDFE39464B
:104030002046FFF7C2FF0448083850F824002844FF
:10404000EAE7000040500008D80100205050000866
:1040500048500008704700000FB4044910B503AA87
:10406000029800F0FFF910BC5DF814FB640000201A
:1040700070B5044685690068C10601D5302600E0A8
:104080002026C00707D070BDD4E9012130469047F3
:10409000206A401C20626D1EF6D570BD70B50446C6
:1040A00085690078C00707D170BDD4E901212020BF
:1040B0009047206A401C20626D1EF6D570BD70B519
:1040C0000C460546012A05D02878800600D5EA6905
:1040D000002302E0012305E05B1C934202D2E05C76
:1040E0000028F9D1A869E618C01AA861286A1844FE
:1040F00028622846FFF7BCFF04E0D5E9012114F847
:10410000010B9047B442F8D32846FFF7C7FF70BDB4
:104110002DE9F0410646002410687529314616A5A0
:1041200010D0AFF30080002802DA404213A507E068
:1041300031688A0701D512A502E0490704D511A507
:10414000012401E0AFF3008000210A2206F12407D8
:1041500009E0B0FBF2FCB0FBF2F302FB1C003030D4
:1041600078541846491C0028F3D123462A46304685
:10417000BDE8F04100F007B9000000002D0000008C
:104180002B0000002000000070B504460D462146BB
:104190001068AFF300802188090502D50F4A7A44E0
:1041A00002E00E4A7A440E32002104F1240305E0B5
:1041B00000F00F060009965D5E54491C0028F7D1F7
:1041C00020780023000704D5702D02D009B1022306
:1041D00011322046BDE8704000F0D5B8B60E0000A0
:1041E0002DE9F05F894604464FF0000ADFF874B10C
:1041F000FB44C0F820A02046E1688847002874D01E
:10420000252806D0D4E901219047206A401C20626D
:10421000F1E700265F462046E168884720280546EA
:1042200007DB312D05D2781910F8200C08B10643B0
:10423000F1E7B00701D526F00406C4F81CA000275A
:10424000C4F818A02A2D09D0284600F06FF938B319
:1042500004EB8708303DC8F8185019E059F8041BE2
:10426000204604EB87029161E1688847012F0546EB
:1042700018D1E069002820DA26F020061DE0D8F8E1
:10428000180000EB800005EB40003038C8F818003B
:104290002046E1688847054600F048F90028EED13D
:1042A000012F0AD02E2D08D12046E16888477F1CB7
:1042B0000546022F46F02006C4DBA069002803DA79
:1042C000404246F00106A061F00701D026F010063A
:1042D0006C2D0BD0682D09D04C2D39D06A2D35D0DE
:1042E000742D35D07A2D33D016E038E0E1682F46B2
:1042F00020468847B842054609D16C2F26D04FF496
:104300008060E168064320468847054604E06C2F3C
:104310001AD04FF4807006430DB3A5F1410019285F
:1043200002D8203546F400664A46294620462660D3
:104330004E46FBF757FF80B101280BD0F61D26F043
:10434000070000F1080956E74020E4E78020D8E79D
:104350000020D6E706F104094DE7284652E7206A17
:10436000BDE8F09F8C0E00007047704770477047A3
:1043700010B500F089F8006810BD10B5044600F0D3
:1043800083F8046010BD2DE9F0470D46994692462A
:10439000044600F124080168880604D5E06921F08C
:1043A0001001216000E00120A84201DD471B00E070
:1043B0000027A1697A1902EB0900081AA061207888
:1043C000C00602D42046FFF753FE002608E0D4E9D9
:1043D00001211AF806009047206A401C761C2062D2
:1043E0004E45F4DB2078C0060AD52046FFF740FE94
:1043F00006E0D4E9012130209047206A401C206269
:10440000381EA7F10107F4DC07E0D4E9012118F810
:1044100005009047206A401C2062281EA5F1010576
:10442000F3DC2046FFF73AFE2078000602D5022092
:10443000BDE8F0870120FBE710B5436913B1AFF386
:10444000008001E0FFF73BFE012010BD127800F173
:1044500024010A7000224A700122EDE711684FF032
:10446000FF32E9E7074B70B50D467B4400F015F8C5
:104470000446284600F024F810B14FF0FF3070BD1C
:10448000204670BDD5C6FFFF0048704760BC0020C5
:1044900001694A1C02610878704700B58FB0CDE908
:1044A00001310021059105497944CDE903101146F8
:1044B0006846FFF795FE0FB000BD0000E5FFFFFF67
:1044C000007B00F0800070470048704760BC00200F
:1044D0007546FFF7F9FFAE4605006946534620F0E2
:1044E0000700854618B020B5FCF7D6FBBDE8204094
:1044F0004FF000064FF000074FF000084FF0000BA0
:1045000021F00701AC46ACE8C009ACE8C009ACE852
:10451000C009ACE8C0098D46704710B50446AFF33A
:1045200000802046BDE81040FBF77ABE30380A28EC
:1045300001D201207047002070472DE9F041064666
:104540000F4600F0ADFB041E0D4618BF01202843A6
:1045500020F00040C0F17F6000F1E040C00F0ED0BD
:10456000301C18BF0120384320F00040C0F17F60AC
:1045700000F1E040C00F04BF0120FFF7FEFE20461F
:104580002946BDE8F081000010B591EA030F48BF4D
:1045900083F0004300F17284841A71EB030C05D29E
:1045A000121943EB0C03001B61EB0C01DFF824E153
:1045B0004FEA1154A4EB135C1EEA430F18BF9EEAA6
:1045C000445F73D023EA0E03DCF1200E21EA04518C
:1045D00043F4801332D322FA0CFE10EB0E0023FAC0
:1045E0000CFE41EB0E01CCF1200E03FA0EFE10EB97
:1045F0000E0051F10001B1F5801FCCF1200E32D236
:1046000001EB045112FA0EF2BDE8104058BF70479A
:10461000401C38BF5FEA420218BF7047002814BF31
:1046200020F0010041F100014FEA410313F5001FA2
:1046300038BF7047A1F1C04100F02CBB012A43EB09
:104640000302ACF1200CDCF11F0E32BF4FF0000E64
:1046500023FA0CF310EB030041EB0451B4EB115FB0
:10466000D0D0A1EB045101F5801149085FEA300078
:1046700001EB04510ED350F1000038BF12FA0EFEC8
:1046800008D1BDE81040C9E7401C38BF5FEA4202CC
:10469000CAD1C3E7BDE810404FEA410313F5001F3C
:1046A00038BF7047A1F1C04100F0F4BA9EEA445F00
:1046B00008D011EA5E0FBDE8104004BF01F00041D0
:1046C00000207047BDE8104070B500F095FA00BFBB
:1046D00064FBBE3E0000E0FF491058BFC1F14041FD
:1046E0005B1058BFC3F140438B42EFF3008070472B
:1046F0002DE9C04130B4DFF8A0C23CEA111418BF64
:104700003CEA131400F0EC8081EA03051CEA111462
:1047100044EAD57418BF1CEA131500F0C780A4EB57
:1047200005044FF0004545EAC12145EAC32341EAAB
:10473000505143EA525304F17F74994204F5003416
:104740004FEAC0204FEAC22208BF904200F09C808E
:104750004FEA13650FF24016765D4FEA134506FBEC
:1047600005F7C7F1807706FB07F74FEAD737A7FBB6
:1047700003687642C8F58038A7FB06CE38BFA8F19B
:10478000010807FB08E64FF0000EA6FB028CE6FBD3
:1047900003CEDCF1000CCEF1004E38BFAEF1010EBD
:1047A000A6FB0C584FF000074FF00005E6FB0E8704
:1047B000A1FB08C6A0FB07CE16EB0E0645F10005CF
:1047C000E1FB076515F1E04E7EBFA4F580345FEA9A
:1047D00046066D4116F1800745F100054FEA17279F
:1047E0004FEA066647EA0567A6F1DE46B6F1805F46
:1047F0004FEA15251FD9384624F0010C05EBC4718A
:10480000BCF1FE6F01EB0C1102D8F0BCBDE80081D9
:1048100024425CBF01F5801E9EEAC47F02D4F0BC36
:10482000BDE80081244238D4F0BCA1F1C041BDE80C
:10483000004100F02FBA4FEAD22242EA43524FEA37
:10484000D323A7FB02864FEAD02040EA415007FB62
:1048500003661EEA0E0F4FEAD12105FB026658BF20
:10486000A6EB0056B6EB00564FEA520E4EEAC37E58
:1048700018EB0E0E56EB530EBDD518EB02085E4139
:104880007F1C55F10005B6E74FF480154FF0000787
:104890004FF000064FF00008ADE7F0BC4FF000000D
:1048A00001F1C04101F00041BDE8008111EA0C1F97
:1048B0000CEA131500D00CE013EA0C1F00F0258061
:1048C0004FF00000F0BC81EA030101F00041BDE8B7
:1048D0000081F0BCBDE8004181EA030100F0DAB9D3
:1048E000F0BCBDE8004170B500F086F9097EFC3EE1
:1048F00000F007B881EA03014FF0000001F0004129
:10490000704781EA030100F0C5B9F0BCBDE8004181
:104910004FF0000021497047FFFDFBF9F7F5F4F275
:10492000F0EEEDEBE9E8E6E4E3E1E0DEDDDBDAD84A
:10493000D7D5D4D3D1D0CFCDCCCBCAC8C7C6C5C4A8
:10494000C2C1C0BFBEBDBCBBBAB9B8B7B6B5B4B3BF
:10495000B2B1B0AFAEADACABAAA9A8A8A7A6A5A4AA
:10496000A3A3A2A1A09F9F9E9D9C9C9B9A9999986E
:104970009797969595949393929191908F8F8E8E11
:104980008D8C8C8B8B8A898988888787868585849E
:1049900084838382828181800000FF070000F87F8A
:1049A0004FEA41034FEA5353A3F58063D3F11E034B
:1049B000C8BFD3F1210C0CDD4FF0004242EAC12206
:1049C00042EA505232FA03FC8CEAE17CACEBE17033
:1049D0007047102BC4BF0020704703F5787CBCF1F2
:1049E000FF3F04D06FF0004282EA2100704770B5AB
:1049F00000F002F94992248000207047F2E710F09D
:104A0000004248BF4042B0FA80F310FA03F10AD0E6
:104A1000C3F11D0303F580634FEA415002EB0352DB
:104A200002EBD12170474FF00000704751EA030CB0
:104A300017D41CF5801F58BFBCF5801F00F10680FD
:104A4000994218BF704708BF9042704707D711F5C9
:104A5000801F58BF13F5801F19D4994270478942AF
:104A600070471CF5801F08D5BCF5801FF7D58B4219
:104A700018BF704708BF824270474FF4001C1CEB00
:104A8000410F38BF1CEB430F01D28B42704770B50A
:104A900000F0B2F8922449004FF000514FF08053DB
:104AA000FFF71ABEDFF848C170B51CEA111E1EBF21
:104AB0001CEA13159EEA0C0F95EA0C0F00F06F80AC
:104AC00081EA030423EA4C134EEAD47E21EA4C1116
:104AD00041F4801143F48013AE44A1FB024CA0FBCF
:104AE0000365AEF17F7E361955EB0C05A1FB034C37
:104AF0004CF10003A0FB021C16EB0C06654153F1C0
:104B00000003094218BF46F0010613F4007F0BD1E1
:104B10004FEA03314FEA0530340341EA155140EAC8
:104B200016506FF003020AE04FEAC3214FEAC52096
:104B3000F40241EA555140EA56506FF0020202EB8E
:104B40002E4201EB025585EACE710AD05FEA440C91
:104B500018BF24F0004450F1000041F1000120EAA8
:104B6000D47040F2FE7C624500D270BDA84214BFF2
:104B70004FF080444FF04044002E08BF0024BEF1A7
:104B8000806FA8BFA1F1C041BDE8704080F2828073
:104B90004FF0000001F1C04101F0004170479EEA72
:104BA0000C0F0CEA131518BF95EA0C0F06D04FF046
:104BB000000081EA030E0EF0004170BD00F01CF809
:104BC0008900013E00F007B800F009B84FEA430C35
:104BD0005FEA5C5C08D081EA030100F05BB84FEA51
:104BE000410C5FEA5C5CF6D14FF000000149704770
:104BF0000000FF070000F87F0EF1020E2EF0030EFA
:104C00005EF8046B364205D4012A43EB030515F523
:104C1000001F12D8012841EB010C1CF5001F0CD815
:104C20000ED14FEAD17C15F5001F0CEB4C0C0CF1AA
:104C3000020C08BF4CEBD37C04E04FF0080C01E001
:104C40004FEAD37C0CEB4C0526FA05F606F0070676
:104C5000B6F1040C06D20EEB860CBDE870404CF0A9
:104C6000010C6047DFE80CF0090B02024FF0004135
:104C70004FF00000A1F5002170BD19461046012833
:104C800051EB010418BFD4F5001484BF002001F0DB
:104C9000004170BD0808A0F500114FEA31017047CE
:104CA0002DE9F04101F5801CBCF5001FC0F2C38066
:104CB0004FEA115C21EA0C510CF1FD0C41F480111A
:104CC0005FEA5C0C0CF5C07C01D3400049413DA477
:104CD000890241EA905187028E0E0A0CA45D04FB02
:104CE00004F602FB06F6C6F14046A4FB0662F60D8A
:104CF00046EA422606FB06F4A4FB01235242C3F116
:104D0000404338BF5B1EA6FB02420024E6FB03249F
:104D1000D20B42EA4446A6FB0623A1FB02E2A3FB18
:104D200007E4A4184FF0000252F10002E3FB014235
:104D30006442C2F1404E38BFAEF1010EA6FB04231F
:104D40004FF00002E6FB0E32A2FB03464FF00004D8
:104D5000B61954F10004E2FB0264A1FB06E6A4FBD1
:104D600007E816EB08064FF0000858F10008E4FBCE
:104D700001687642C8F1405838BFA8F10108A2FB8B
:104D800006E4A3FB08E52D194FF0000454F10004DC
:104D9000E2FB0854A1FB05E6A7FB04E818EB0608B4
:104DA0004FF0000656F10006E1FB048618F12005DD
:104DB00056F10006A809A8F11B08B10908F03F0840
:104DC000B8F10A0F40EA86601CD901EB0C51BDE82E
:104DD000F08100BFFCF5EEE8E2DDD8D3CFCBC7C34E
:104DE000C0BDB9B6B4B1AEACA9A7A5A3A19F9D9B08
:104DF0009A9896959392908F8D8C8B8988878685CB
:104E000084838281A0FB006800FB01F208EB42086A
:104E1000B8EB872807D5341858EB0104D5D5401CCA
:104E200051F10001D1E7341A78EB0104CDD4401ED2
:104E300071F10001C9E75FEA4C0C5FEA9C5C0DD19F
:104E400005D34FF0000001F00041BDE8F081BDE85E
:104E5000F04170B5FFF7D0FE6DDBFFBEBDE8F0415D
:104E60004FF00000004970470000F87F10B591EA4C
:104E7000030F48BF83F000433FF58EAB841A71EBFC
:104E8000030C07D212198CF0004C43EB0C03001BEF
:104E900061EB0C01DFF8A4E14FEA1154A4EB135CC1
:104EA0001EEA430F18BF9EEA445F00F0B08023EA79
:104EB0006E03524221EA0451C3EB6E0338BF5B1EFE
:104EC000DCF1200E25D322FA0CFE10EB0E0043FA83
:104ED0000CFE41EB0E01CCF1200E03FA0EFE10EB9E
:104EE0000E0051F10001CCF1200E29D412FA0EF27D
:104EF00001EB0451BDE8104058BF7047401C1CBF77
:104F0000B2F1004F704700280CBF491C20F001008F
:104F1000704712EB020E43EB030218BF4FF0010E75
:104F20004EEA4202ACF1200CDCF11E0E54D943FAD9
:104F30000CFE10EB0E0051F1FF31CCF11E0ED5D559
:104F40000EF1010E12FA0EFE404141EB010101EBA0
:104F5000445C5FEA5C5C10D910EBDE7001EB04513D
:104F600038BFBEF1004FBDE8104018BF70470028A1
:104F70000CBF491C20F00100704730D24FEAD42CFE
:104F800011F5001124F400641BD0B1FA81F20B3A40
:104F9000A41AA41ED2F12003914030FA03F319435E
:104FA000904001EBCC71002C01EB0451BDE81040A6
:104FB000A8BF704701F1C0414FF0000001F000416F
:104FC0007047B0FA80F310FA03F100D110BDE41A73
:104FD000173C4805C90AE4E701EB045110BD49102C
:104FE00001EB0451BDE810404FEA300002E04FF001
:104FF000000170474A0008BF0042F8D0B2F5001F18
:1050000028BF704701F000414FF0000070479EEA52
:10501000445F07D011EA5E0FBDE8104004BF0021D5
:1050200000207047BDE8104070B5FFF7E5FD00BFF8
:1050300040DFF63E83F00041104670470000E0FF7D
:1050400000050000007800002000000020000000A3
:1050500000A0000000000F00303132333435363705
:1050600038394142434445464030580030313233AC
:1050700034353637383961626364656640307800AC
:105080000400000800000000000000020001000011
:10509000100000003F0000006465630069640000C8
:1050A00072756E74696D650068656C700000000053
:1050B0006C6973740000000068657800766F69643D
:1050C0002077726974655F61646472287533322079
:1050D000616464722C7533322076616C29000000A3
:1050E00075333220726561645F6164647228753360
:1050F0003220616464722900766F69642064656C93
:1051000061795F6D7328753136206E6D73290000EB
:10511000766F69642064656C61795F757328753397
:1051200032206E7573290000766F6964204D6F76AA
:105130005F462028696E742078290000766F6964C4
:105140002052657365745F646174612028696E74B0
:1051500020782900766F69642054494D325F61726E
:105160007228696E7420782C696E74207929000089
:105170009051000800000020E40100006C010008CC
:1051800024520008E4010020DCC00000C80100082F
:105190000110021F0A23140503135E0784A24A04A8
:1051A0000009120102030406070809291A691E25CD
:1051B000020406081394501B08A8041AB0041A9C91
:1051C000041AB8041A98041AA004136F381B08E0D4
:1051D000081A75081ABC0813E30A1B08F8081A9B7A
:1051E000081310511408C5041B0854081AD1081AD2
:1051F00028081AD7081A3C08229C1420C3331B081D
:10520000E7041391341408F7371A08B302DC0113CA
:10521000573E1B088D0413601232202C6860B208C0
:04522000430F6800D0
:0400000508000131BD
:00000001FF
