:020000040800F2
:1000000080BA0020B9020008D91C0008491C000869
:10001000D51C00082119000857270008000000001F
:100020000000000000000000000000004D2000085B
:100030002D1B000800000000611D00086121000860
:10004000D3020008D3020008D3020008D30200083C
:10005000D3020008D3020008D3020008D30200082C
:10006000D3020008D3020008D3020008D30200081C
:10007000D3020008D3020008D3020008D30200080C
:10008000D3020008D3020008D3020008D3020008FC
:10009000D3020008D3020008D3020008D3020008EC
:1000A000D3020008D3020008D3020008D3020008DC
:1000B000D3020008D3020008C5210008D3020008BB
:1000C000D3020008D3020008D3020008D3020008BC
:1000D000D302000809240008D30200089124000874
:1000E000D3020008D3020008D3020008D30200089C
:1000F000D3020008D3020008D3020008D30200088C
:10010000D3020008DD1E0008D3020008D302000855
:10011000D3020008D3020008D3020008FD21000822
:10012000D3020008D3020008D3020008D30200085B
:1001300000F002F800F0B0F80AA090E8000C824449
:100140008344AAF10107DA4501D100F0A5F8AFF226
:10015000090EBAE80F0013F0010F18BFFB1A43F0A5
:100160000103184754420000744200000A444FF053
:10017000000C10F8013B13F0070408BF10F8014B06
:100180001D1108BF10F8015B641E05D010F8016B4B
:10019000641E01F8016BF9D113F0080F1EBF10F8AF
:1001A000014BAD1C0C1B09D16D1E58BF01F801CBD2
:1001B000FAD505E014F8016B01F8016B6D1EF9D555
:1001C0009142D6D37047000000230024002500266A
:1001D000103A28BF78C1FBD8520728BF30C148BFAA
:1001E0000B6070476E2900F03883702900F085811C
:1001F000662903F0AF87652903F0AC87672903F010
:10020000A9876129AFF3008003681B0A28BF41F06A
:100210008001692900F0F680642900F0F3807529D7
:1002200000F0F0806F2900F03184782900F05181CE
:10023000E92900F0CB83E42900F0C883F52900F018
:10024000C583EF2900F02E84F82900F0508103685F
:10025000DB0928BF41F08001632900F03A8373294C
:1002600000F03F83E32900F08386F32900F08886BD
:10027000002070471FB500F0DDFE040000200021C3
:1002800003F052FF401C60600020002103F036FFA5
:10029000E0601FBD10B510BD00F09EFE1146FFF7D7
:1002A000E9FF02F0FFFC00F077FF03B4FFF7F2FF75
:1002B00003BC02F06DFA0000094880470948004776
:1002C000FEE7FEE7FEE7FEE7FEE7FEE7FEE7FEE706
:1002D000FEE7FEE704480549054A064B7047000063
:1002E000652100083101000880B4002080BA002098
:1002F00080B6002080B60020704700001CB50C4678
:10030000064B7B4469460090204600F0C0FA044644
:100310000020694600F0CEFA20461CBDAF05000063
:100320000FB4044910B503AA029800F0DFFA10BC1C
:100330005DF814FB1C0000200FB41CB5084B06AA86
:100340007B4469460090059800F0A1FA044600201D
:10035000694600F0AFFA20461CBC5DF814FB0000B3
:100360007105000070B5044685690068C10601D5B5
:10037000302600E02026C00707D070BDD4E9012157
:1003800030469047206A401C20626D1EF6D570BD35
:1003900070B5044685690078C00707D170BDD4E9FF
:1003A000012120209047206A401C20626D1EF6D556
:1003B00070BD70B50C460546012A05D02878800628
:1003C00000D5EA69002302E0012305E05B1C9342AB
:1003D00002D2E05C0028F9D1A869E618C01AA86129
:1003E000286A184428622846FFF7BCFF04E0D5E9D4
:1003F000012114F8010B9047B442F8D32846FFF7C7
:10040000C7FF70BD2DE9F04106460024106875292C
:10041000314616A510D000F0B5F9002802DA4042A6
:1004200013A507E031688A0701D512A502E0490744
:1004300004D511A5012401E000F0ADF900210A2244
:1004400006F1240709E0B0FBF2FCB0FBF2F302FB7B
:100450001C00303078541846491C0028F3D123463C
:100460002A463046BDE8F04100F09EB90000000089
:100470002D0000002B00000020000000F0B40D460D
:100480000188090502D5214C7C4402E01F4C7C44C4
:100490000E34002100F1240608E002F00F071209D3
:1004A000E75D42EA03721B097754491C52EA0307CD
:1004B000F3D102780023120704D5702D06D009B1BC
:1004C000022311342246F0BC00F06EB9012310342F
:1004D000F8E770B504460D462146106800F05BF958
:1004E000024629462046BDE870400023C6E7D21DDB
:1004F00022F00703D3E90023C0E70368126843F042
:10050000200303600823C3610023B7E7E43C000035
:100510002DE9F05F894604464FF0000ADFF874B118
:10052000FB44C0F820A02046E1688847002874D02A
:10053000252806D0D4E901219047206A401C20627A
:10054000F1E700265F462046E168884720280546F7
:1005500007DB312D05D2781910F8200C08B10643BD
:10056000F1E7B00701D526F00406C4F81CA0002767
:10057000C4F818A02A2D09D0284602F002F938B391
:1005800004EB8708303DC8F8185019E059F8041BEF
:10059000204604EB87029161E1688847012F0546F8
:1005A00018D1E069002820DA26F020061DE0D8F8EE
:1005B000180000EB800005EB40003038C8F8180048
:1005C0002046E1688847054602F0DBF80028EED1B6
:1005D000012F0AD02E2D08D12046E16888477F1CC4
:1005E0000546022F46F02006C4DBA069002803DA86
:1005F000404246F00106A061F00701D026F0100647
:100600006C2D0BD0682D09D04C2D39D06A2D35D0EA
:10061000742D35D07A2D33D016E038E0E1682F46BE
:1006200020468847B842054609D16C2F26D04FF4A2
:100630008060E168064320468847054604E06C2F49
:100640001AD04FF4807006430DB3A5F1410019286C
:1006500002D8203546F400664A46294620462660E0
:100660004E46FFF7BFFD80B101280BD0F61D26F0E6
:10067000070000F1080956E74020E4E78020D8E7AA
:100680000020D6E706F104094DE7284652E7206A24
:10069000BDE8F09F743C000030B505460B462A4685
:1006A00013F8014B12F8010B08B1A042F8D01CB1AD
:1006B000002802D06D1CF1E7284630BD10B5431C60
:1006C00002E010F8011B71B18107FAD14FF001323D
:1006D00002C88C1A8C4314EAC211F9D0C01A0A0657
:1006E00003D0C01E10BDC01A10BD0A0401D0801E68
:1006F00010BD0902FCD0401E10BD00004FF0013CAF
:1007000050F8042B51F8043B9A4221D1A2EB0C0380
:10071000934313EACC1317D150F8042B51F8043B40
:100720009A4215D1A2EB0C03934313EACC130BD1DD
:1007300050F8042B51F8043B9A4209D1A2EB0C0368
:10074000934313EACC13DBD04FF00000704700BF97
:10075000D01A01BAB1FA81F101F0180122FA01F0C0
:10076000CB40C1F12001DBB2C0B2C01A2CFA01F3B8
:10077000D11A914311EAC311E6D17047704770470F
:100780007047704709684A0501D540B27047C905EE
:10079000FCD500B2704709684A0501D5C0B2704760
:1007A000C905FCD580B270472DE9F0470D46994642
:1007B0009246044600F124080168880604D5E069E1
:1007C00021F01001216000E00120A84201DD471B5B
:1007D00000E00027A1697A1902EB0900081AA0615C
:1007E0002078C00602D42046FFF7BCFD002608E0B2
:1007F000D4E901211AF806009047206A401C761CB3
:1008000020624E45F4DB2078C0060AD52046FFF76B
:10081000A9FD06E0D4E9012130209047206A401C60
:100820002062381EA7F10107F4DC07E0D4E90121BA
:1008300018F805009047206A401C2062281EA5F188
:100840000105F3DC2046FFF7A3FD2078000602D562
:100850000220BDE8F0870120FBE711680268006A0A
:10086000530501D508700AE0D30501D5088006E0DC
:10087000130603D5C217C1E9000200E00860012099
:100880007047000001694A1C02610878704700B592
:100890008FB0CDE901310021059105497944CDE9B9
:1008A000031011466846FFF733FE0FB000BD00008D
:1008B000E5FFFFFF0A6802F8010B0A60704710B5F8
:1008C000436913B1AFF3008001E0FFF772FD01202F
:1008D00010BD127800F124010A7000224A70012232
:1008E000EDE711684FF0FF32E9E70000074B70B504
:1008F0000D467B44FFF7CBFF0446284600F044FB3F
:1009000010B14FF0FF3070BD204670BD9323000042
:100910002DE9FF5F15468A460446DFF8AC80F844AF
:100920000027D8E900103E46CDE9001010E03AF863
:1009300016106A4602A800F02BFB411C07D0217854
:10094000890603D5E269391891420DD80744761C0F
:100950002078800602D5E069B84205DDAE42E6DBCC
:100960003AF816000028E2D1A069C01BA061204619
:10097000FFF7F8FCD8E90010CDE90010002017E0DF
:100980003AF818106A4602A800F002FBB0F1FF3FE7
:1009900081460BD000250DF1080B05E0D4E90121BB
:1009A0001BF8050090476D1C4D45F7D308F1010079
:1009B000B0428046E4DB206A384420622046FFF7DC
:1009C000E7FCBDE8FF9F00008A3800002DE9F041F8
:1009D0008046D21D22F007020025D2E90002F52947
:1009E00015A614D0011E72F1000106DA0023D0EB27
:1009F000030063EB020211A608E0D8F800108B0791
:100A000001D50FA602E0490701D50EA60125114622
:100A1000002408F1240704E000F04EF830323A5583
:100A2000641C50EA0102F7D12B463246214640466B
:100A3000BDE8F041FFF7B8BE000000002D00000047
:100A40002B0000002000000030B4002100F124043D
:100A500008E002F00705D208303542EA4372DB08AD
:100A60006554491C52EA0305F3D10468002310A21F
:100A7000250708D504F020040C4304D0C4690123E1
:100A80000CA2641EC46130BCFFF78EBE10B50446D4
:100A900021461068FFF77FFE02462046BDE8104061
:100AA0000023D1E7D21D22F00701D1E90023CBE7D3
:100AB000000000003000000030B5B0F10A024FEA3B
:100AC000900E71F100034EEA817EB0EB0E0061EBF7
:100AD00091014FEA101E4EEA017E10EB0E0041EB31
:100AE00011114FEA102E4EEA016E10EB0E0041EB91
:100AF00011214FEA104E4EEA014E10EB0E0041EB71
:100B00001141401841F100014FEAD00040EA417024
:100B10004FEAD10110EB80054FEA810444EA90745A
:100B200044EB01046D1944EB0404521BA3414FF044
:100B3000000348BF0A3200D530BD401C41F100011E
:100B400030BD70472DE9FF4F0C461E464FF0FF3772
:100B50008BB0D2E90001DDF860800A908A46C1F3CB
:100B60000A5505B93D46002108464FF00000BAF18C
:100B7000000F00F4400005DA00EB80004FF4400164
:100B800001EA50004FEA9059B9F1010F00DDB94672
:100B90000A9850EA4A000ED044F61050A5F2FF35EC
:100BA00045432F14B8F1000F1ED07542291E1EDDDB
:100BB000C9F100021CE0B8F1010F4FF0000001D0B4
:100BC000302103E0F24305E02154401CB042FBDB3E
:100BD00030460022002121540B99C1F80880C1E958
:100BE00000200FB0BDE8F08FBD1B6D1CDEE74A464C
:100BF00000DA694206A800F061FA06AB93E8070044
:100C000003AB83E8070050460A9900F0CEFA8DE85E
:100C10000700A0F500501F3800900398002D09DD53
:100C200042F21F014A46084403A90390684600F0B7
:100C30002DFD08E0A0F500504A461F3803A9039097
:100C4000684600F037FD8DE807000004000C03D073
:100C50004FF0FF30410800E01046B8F1000F03D01C
:100C60000022009215461EE0751E05D4FFF724FFF2
:100C7000303262556D1EF9D5B3460122084302D0C9
:100C800000227F1C04E02078302801D100227F1E42
:100C9000002A099786D01DE0112D07DAFFF70CFF17
:100CA000303262556D1C50EA0102F5D1084302D082
:100CB0000098C8B10EE00021681E05E0235C625C6C
:100CC00063542254401E491C8142F7DBAB46A81BEB
:100CD000401E0990002004F80B000B98099AC0F8F8
:100CE0000880C0E9002B7CE711264FF0000859E787
:100CF0002DE9F04F88460446D21D22F0070191B03D
:100D0000D1E90001CDE90A0101F027FD02460B9867
:100D1000C00F01D02D2007E02068810701D52B20CE
:100D200002E0202101EAC000032A099001D0072A2D
:100D300005DB03464146204600F080F90BE12078B0
:100D4000800601D5E06900E00620B8F1650F814614
:100D500006D0B8F1660F18D0B8F1670F70D131E046
:100D60000020B9F1110F009001DB112301E009F11E
:100D700001030AAA01A90CA8FFF7E4FEDDE90C7043
:100D8000002609F10105834647E001204B4600900B
:100D90004FF000470AAA01A90CA8FFF7D3FEDDE92E
:100DA0000DB00C995D46002610B909F101000D182F
:100DB000B9EB050003D4C0F1FF3609F10105A5EB3D
:100DC00009002BE0B9F1010F01DA4FF00109002011
:100DD000B9F1110F0090484601DD112300E00346F0
:100DE0000AAA01A90CA8FFF7ADFEDDE90C704D467B
:100DF00000268346207800070AD4AB4500DA5D461A
:100E000001A8012D04DD411911F8011C302907D07A
:100E10004F4502DA17F1040F04DA012082460FE091
:100E20006D1EEEE7002F02DCED1B3E4403E0781C54
:100E3000A84200DD7D1CB81B00F1010A4FF00047FD
:100E40002078000703D4AA4501DB4FF0FF3A0021C8
:100E5000B7F1004F0DF143088DF8431024D0022064
:100E60002B23002F01DA7F422D230A21021EA0F13D
:100E7000010000DC5FB197FBF1FC97FBF1F201FB95
:100E80001C7C17460CF1300C08F801CDEEE7A8F1F8
:100E9000010003702188090501D5452100E0652185
:100EA000A0F1010800F8011C09980FA9A1EB08079F
:100EB000FF1D00B10120411901EBEA70A16938441E
:100EC000081A401EA0612078C00602D42046FFF711
:100ED00049FA099828B1D4E901219047206A401CB9
:100EE00020622078C00622D52046FFF73BFA1EE09C
:100EF000002E04DBB34502DD01A8805D00E0302058
:100F0000D4E901219047206A401C2062761CAAF196
:100F100001005FEA000A0AD100F08CF8C06801689D
:100F2000405CD4E901219047206A401C2062281EC1
:100F3000A5F10105DCDC07E0D4E9012118F8010B7B
:100F40009047206A401C2062381EA7F10107F3DC9D
:100F50002046FFF71DFA032011B043E610B54369A0
:100F600013B1AFF3008001E0FFF7D2FC012010BD08
:100F7000128800F1240182840022C2840122EDE75C
:100F800011684FF0FF32E9E7007B00F08000704706
:100F900070B516460C46054600F044F8036893F811
:100FA0000101012806D0FF2C0FD8185D68B101207F
:100FB0002C7070BDD3F807013246214603F20713A7
:100FC00003442846BDE8704018474FF0FF3070BD1D
:100FD0000048704720B400207546FFF7F9FFAE4681
:100FE00005006946534620F00700854618B020B535
:100FF000FFF770F9BDE820404FF000064FF0000702
:101000004FF000084FF0000B21F00701AC46ACE8B0
:10101000C009ACE8C009ACE8C009ACE8C0098D461D
:101020007047000010B500F005F8001D10BD00BFAE
:10103000F93000000048704740B400202DE9F0412D
:101040001F46044603260168072A01F4006004DBFA
:1010500008B116A505E016A503E008B115A500E046
:1010600015A521F010002060A069C01EA0610FB17D
:10107000401EA0612046FFF775F94FB1D4E9012168
:1010800038469047206A401C2062C01C206206E05F
:10109000206AFAE7D4E9012115F8010B9047761E82
:1010A000F8D22046FFF774F9BDE8F0814E414E00BA
:1010B0006E616E00494E4600696E66002DE9F0478C
:1010C000814616468AB0334878440DC88DE80D0035
:1010D00030487844801C03AC0DC884E80D0041F60C
:1010E0009B300844372190FBF1F290FBF1F5A5F11C
:1010F000800501FB12041B3C02D56442012000E084
:101100000020DFF890A080460027FA44AAF1BE0A2A
:101110000DE0E00709D03246684607EB47010AEBCD
:10112000810100F0C7FA8DE8070064107F1C002CD5
:10113000EFD1184F7F44AC3F18E0E80714D007EB1D
:1011400004100DF1180A90E80E008AE80E00C0683D
:10115000F04201D198190890324606A903A800F080
:10116000A9FA03AB83E807006D10641C002DE4D1DD
:1011700032466946B8F1000F03A802D000F086FAA3
:1011800001E000F097FAC9E90001C9F808200AB0A7
:10119000BDE8F0876431000010B50446AFF300806D
:1011A0002046BDE81040FFF780B85FEA400C08BF5A
:1011B00091F0000F4FEA8C234FEAC12243EA5151CC
:1011C0004FEA1C5018BF00F5F0404FEA300018BF3E
:1011D00041F000415FEA6C5C00F02980BCF1FF3F08
:1011E00008BF40F080407047130C06BF12044FF058
:1011F000100C4FF0000C130E04BF12020CF1080C7F
:10120000130F04BF12010CF1040C930F04BF9200E2
:101210000CF1020CD30F04BF52000CF1010C11466B
:101220004FF00002A0F11F00A0EB0C00704711F07E
:10123000004F08BF704731F000413FF4D5AF0B0CB1
:1012400006BF09044FF0100C4FF0000C0B0E04BF4A
:1012500009020CF1080C0B0F04BF09010CF1040C7E
:101260008B0F04BF89000CF1020CCB0F04BF4900A7
:101270000CF1010CCCF12003A0EB0C0022FA03F3DB
:1012800002FA0CF241EA030100F10100704720F07C
:101290007F4C80EA030023F07F47ACEB070303F5A4
:1012A0007C5300F0004003F1FF032DE980494FEA31
:1012B000154B09B44FEA144325EA0B4E24EA0348C0
:1012C0000FF2042606EB132749083E785FEA320244
:1012D00003FB0667C7F5000707FB06F64FEA54371E
:1012E0004FEAD64606F1020607FB066CCCF1005C1D
:1012F0004FEA1C472CEA074C07FB06F40CFB06F5EB
:1013000004EB15464FEA961634BF00204FF000401C
:101310004FEAD13706FB07FC4FEA1C4C0CFB0BF7DE
:10132000D21B03FB0CF761EB07010CFB0EF7B0EBD4
:10133000074072EB17420CFB08F734BFA2EB0742E1
:10134000B2EB074261EB17414FEA0C444FEA9107B9
:1013500006FB07FC4FEA1C4C0CFB0BF7B0EBC7403D
:1013600072EB573203FB0CF734BFA2EBC742B2EB70
:10137000C74261EB57310CFB0EF7B0EBC70072EBC5
:1013800057720CFB08F734BFA2EBC702B2EBC702DF
:1013900061EB5771039F4FEA816141EA921104EBBF
:1013A000CC044FEAD1374FEA826206FB07FC42EADF
:1013B00090124FEA80604FEA1C4C0CFB0BF7D21BDB
:1013C00003FB0CF761EB07010CFB0EF7B0EB0740DA
:1013D00072EB17420CFB08F734BFA2EB0742B2EBEB
:1013E000074261EB17414FEA8C554FEA910704EB36
:1013F0009C2406FB07FC4FEA1C4C0CFB0BF7B0EBE4
:10140000C74072EB573203FB0CF734BFA2EBC74265
:10141000B2EBC74261EB57310CFB0EF7B0EBC700E4
:1014200072EB57720CFB08F734BFA2EBC702B2EBAA
:10143000C70261EB577115EB4C254FEA816141EA18
:1014400092114FEA82624FEAD13742EA901206FBCC
:1014500007FC44F100044FEA80604FEA1C4C0CFB8F
:101460000BF7D21B03FB0CF761EB07010CFB0EF72C
:10147000B0EB074072EB17420CFB08F734BFA2EB4E
:101480000742B2EB074261EB174115EB1C154FEA1F
:10149000813141EA92414FEA823242EA90424FEA78
:1014A00080304FEA0C7644F1000448EA03434EEAE8
:1014B0000B484FF0000EB2EB080C71EB030724BF92
:1014C000624639464EEB0E0E4FF0000B00185241AB
:1014D00049414BEB0B0BB2EB080C71EB03077BF1B3
:1014E000000B24BF624639464EEB0E0E4FF0000B48
:1014F0000018524149414BEB0B0BB2EB080C71EB5E
:1015000003077BF1000B24BF624639464EEB0E0EFB
:1015100051EA020718BF46F0010616EB0E7655F1A8
:10152000000254F1000103D5BDE88901BDE800883F
:10153000BDE88901BDE80048B619524141EB0101FF
:10154000A3F10103704780807F7E7D7C7B7A797870
:10155000777676757473727171706F6E6E6D6C6C78
:101560006B6A6A696868676666656464636362611A
:101570006160605F5F5E5E5D5D5C5C5B5B5A5A599B
:101580005958585757565655555554545353525207
:101590005251515050504F4F4F4E4E4D4D4D4C4C5F
:1015A0004C4B4B4B4A4A4A494949484848474747A8
:1015B00047464646454545444444444343434342E5
:1015C000424242414141002B26D4770021D01CB534
:1015D0004FEA370703B44FF010004FF010014FF0FF
:1015E00000000FBCBDE810400BF1010BBBF1010F77
:1015F00008BF5FEA170722BF12F1010211F10101D2
:101600004FF0004143F1000300F0004043EA0000C6
:101610007047F9D35708DAE746EA064613F1400F58
:101620004FEA16461FDD13F1200FDFBF16430A46AF
:10163000002120335B42C8D0C3F1200746EA0646AA
:1016400002FA07F74FEA164646EA0706C3F12007F3
:1016500022FA03F201FA07F721FA03F14FF000032F
:1016600042EA0702B1E746EA020646EA06464FEAC0
:10167000164646EA0106BCBF46EA0646360C4FF05F
:1016800000034FF000024FF000019EE72DE9C04833
:10169000934630B491E8380007C831EA400C48BF9F
:1016A00034EA430C03D5FFF7F2FDFFF78CFFF0BCE3
:1016B000BDE800882DE9C048934630B491E8380071
:1016C00007C810F0804F08BF13F0804F03D100F01F
:1016D00005F8FFF778FFF0BCBDE8008820F07F47F1
:1016E00080EA030023F07F4C07EB0C03A3F57C5347
:1016F00000F00040A3F1FE0392F0000F00F0B38071
:1017000095F0000F00F077802DE901494FEA114074
:101710004FEA144621EA004800FB06FC24EA06478B
:1017200008FB06F607FB08F800FB07F718EB06486E
:101730004CEB164C4FEA124B18EB07484FEA154694
:101740004CEB174022EA0B4E0BFB06FC25EA064742
:101750000EFB06F607FB0EFE0BFB07F71EEB064E15
:101760004CEB164C4FF000061EEB074E4CEB174BA4
:1017700018EB0B0840F1000018EB0E0B58EB0008BB
:1017800040F100008F1A4FF000013CBFC943661BB7
:1017900014BFB5EB040C00213CBFC943F61B4FEA54
:1017A00017444EEA8E0E27EA04454FEA1C4704FB15
:1017B00007622CEA074C05FB07F70CFB05F604FB58
:1017C0000CFC16EB074642EB174216EB0C4642EBBD
:1017D0001C421BEB060658EB0202414146EA9E06FC
:1017E00001D5BDE80189B619524141EB0101A3F1D0
:1017F0000103BDE801894FEA14454FEA114724EA85
:10180000054621EA074C05FB07F406FB07F70CFB2E
:1018100006F105FB0CFC11EB074144EB17444FEAC2
:10182000124711EB0C4144EB1C4422EA074C05FB28
:1018300007F206FB07F70CFB06F605FB0CFC16EBA4
:10184000074642EB174216EB0C4642EB1C456A1862
:1018500054F1000148BF7047B619524141EB0101F4
:10186000A3F10103704795F0000F37D04FEA114202
:101870004FEA144721EA024624EA074C02FB07F12B
:1018800006FB07F70CFB06F402FB0CFC14EB074409
:1018900041EB17414FEA154714EB0C4441EB1C4157
:1018A00025EA074C02FB07F506FB07F70CFB06F6DB
:1018B00002FB0CFC16EB074645EB174516EB0C46F6
:1018C00045EB1C42121951F1000148BF7047B6198F
:1018D000524141EB0101A3F1010370474FEA144566
:1018E0004FEA114724EA054621EA074C05FB07F1B8
:1018F00006FB07F70CFB06F24FF0000605FB0CFC9D
:1019000012EB074241EB174112EB0C4251EB1C4129
:1019100048BF7047921841EB0101A3F101037047E2
:1019200000BFFEE770B5044605E01548456B05F0BD
:10193000450000B100E0F8E700BF042000F0C2FA63
:1019400020B1042000F0B8FA032070BD012000F09F
:10195000B9FA20B1012000F0AFFA0120F5E70848FC
:101960000069A04201D01020EFE740F2FF50044987
:1019700088630846406908210840C0B2E5E70000D6
:101980000080014010B500241548406820F47040E4
:10199000134948600846406840F40040486004E04D
:1019A000601CC4B2012001F049F90E48006808B17A
:1019B000642CF5DB642C01DB012010BD002404E065
:1019C000601CC4B2012001F039F90648006808B96A
:1019D000642CF5DB642C01DB0120EEE70020ECE752
:1019E000002001402C01244208B50121080200F02A
:1019F000D9F94FF40060ADF8000010208DF8030015
:101A000003208DF802006946064800F090F84FF474
:101A10000061044800F016F900F068F8FFF7B2FF23
:101A200008BD00000020014010B5002404E0601C47
:101A3000C4B2012001F002F90D48006808B1642C1D
:101A4000F5DB002404E0601CC4B2012001F0F6F8CC
:101A50000748006808B9642CF5DB282001F0EEF88F
:101A60000348006808B1012010BD0020FCE7000019
:101A70002C01244270B50024002506E06006040E07
:101A8000FFF7D2FF0443681CC5B2082DF6DB2046E1
:101A900070BD7CB505460E4600F028F8FFF772FFD2
:101AA000F8B9002405E0FFF7E5FF0DF80400601C1D
:101AB000C4B2052CF7DB9DF800009DF80110084426
:101AC0009DF8021008449DF8031008449DF8041086
:101AD000884208D19DF8000030709DF802002870FF
:101AE00001E001207CBD0020FCE7000010B50C489F
:101AF000406820F470400A4948600846406840F455
:101B000040504860002007490860142001F070F838
:101B100001200549C1F8AC011E2001F08FF810BD6D
:101B200000200140AC0124420000244270472DE90E
:101B3000F041024600250026002000230024002753
:101B400091F803C00CF00F0591F803C00CF0100CD5
:101B5000BCF1000F03D091F802C04CEA050591F8E2
:101B600000C0BCF1000F31D0146800202BE04FF012
:101B7000010C0CFA00F3B1F800C00CEA03069E4217
:101B800020D183004FF00F0C0CFA03F7BC4305FA89
:101B900003FC4CEA040491F803C0BCF1280F06D101
:101BA0004FF0010C0CFA00FCC2F814C00AE091F8E6
:101BB00003C0BCF1480F05D14FF0010C0CFA00FC3A
:101BC000C2F810C0401C0828D1D31460B1F800C07E
:101BD000BCF1FF0F34DD546800202EE000F1080C4A
:101BE0004FF0010808FA0CF3B1F800C00CEA030644
:101BF0009E4221D183004FF00F0C0CFA03F7BC4337
:101C000005FA03FC4CEA040491F803C0BCF1280F68
:101C100005D100F1080C08FA0CF8C2F8148091F80C
:101C200003C0BCF1480F07D100F1080C4FF00108C8
:101C300008FA0CF8C2F81080401C0828CED3546073
:101C4000BDE8F0810161704700BFFEE708B50121E2
:101C5000442000F0A7F81C20ADF8000048208DF8C3
:101C6000030069460648FFF762FF0120ADF8000057
:101C700028208DF8030069460248FFF758FF08BD89
:101C8000001801400008014008B50121482000F07B
:101C900089F82020ADF8000010208DF80300032003
:101CA0008DF8020069460948FFF741FF20210748E7
:101CB000FFF7C8FF2020ADF8000069460448FFF791
:101CC00036FF20210248FFF7BDFF08BD000C014090
:101CD0000018014000BFFEE77047000070B500210A
:101CE00000230F22C47804B3154C246804F4E06484
:101CF000C4F5E064210AC1F10403CA40447804FA3F
:101D000003F184781440214309010E4C0678A15553
:101D1000047804F01F050124AC4005786D11AD0076
:101D200005F1E025C5F8004109E0047804F01F053D
:101D30000124AC40044D0678761145F8264070BD6C
:101D40000CED00E000E400E080E100E00249014326
:101D5000024A1160704700000000FA050CED00E037
:101D60007047000029B1064AD2690243044BDA6188
:101D700004E0034AD2698243014BDA6170470000F4
:101D80000010024029B1064A12690243044B1A614D
:101D900004E0034A12698243014B1A617047000054
:101DA0000010024029B1064A92690243044B9A612D
:101DB00004E0034A92698243014B9A617047000034
:101DC0000010024029B1064AD2680243044BDA608F
:101DD00004E0034AD2688243014BDA607047000096
:101DE0000010024030B500210022002400232D4DB8
:101DF0006D6805F00C0121B1042905D0082923D113
:101E000005E0294D056022E0274D05601FE0254DC6
:101E10006D6805F47012234D6D6805F48034022559
:101E200005EB92421CB9214D554305600BE01D4D59
:101E30006D6805F400351DB11C4D5543056002E089
:101E4000194D5543056002E0174D056000BF00BF06
:101E5000144D6D6805F0F0010909154D6B5C0568BE
:101E6000DD4045600F4D6D6805F4E061090A104DD5
:101E70006B5C4568DD4085600A4D6D6805F4605116
:101E8000C90A0B4D6B5C4568DD40C560054D6D684A
:101E900005F44041890B074D6B5CC568B5FBF3F554
:101EA000056130BD0010024000127A0000093D00BB
:101EB000360000204600002001498863704700007A
:101EC0000080014001460020034A526B0A400AB1DB
:101ED000012000E0002070470080014010B500F0B4
:101EE00017F810BD0021094B02689A601A46D168A4
:101EF0006FF30A01D0E901231A43C3681A43036947
:101F00001A431143014AD16070470000008001402C
:101F100010B54948406B00F4807070B347480078B2
:101F2000012814D10020464908600C204860402058
:101F300088600020C8604FF4806008610846FFF7A1
:101F4000D1FF0C20FFF7EEFC3E49087002E00020B4
:101F50003C4908703848806B40F48070364988638B
:101F60000846C06B4CF23A3188433349C8630120BC
:101F7000354908703348007810BDFFE70220FFF7AD
:101F8000A1FF68B10220FFF797FF2B48C06B4CF20E
:101F90003A3188432849C86302202A490870EBE790
:101FA0000820FFF78FFF68B10820FFF785FF224860
:101FB000C06B4CF23A3188431F49C8630420214961
:101FC0000870D9E72020FFF77DFF68B12020FFF7D8
:101FD00073FF1948C06B4CF23A3188431649C86305
:101FE000062018490870C7E71020FFF76BFF68B19B
:101FF0001020FFF761FF1048C06B4CF23A31884364
:102000000D49C86305200F490870B5E74FF400700B
:10201000FFF758FF70B14FF40070FFF74DFF06480F
:10202000C06B4CF23A3188430349C8630720054925
:102030000870A1E700209FE7008001402D000020EC
:10204000C00200202E0000202F000020704710B595
:1020500000F002F810BD00000CB5002001900090C7
:102060003348006840F480303149086000BF304890
:10207000006800F4003000900198401C0190009826
:1020800018B90198B0F5A06FF1D12948006800F4A3
:10209000003010B10120009001E000200090009875
:1020A000012843D12348006840F01000214908600E
:1020B0000846006820F0030008600846006840F009
:1020C000020008601A48406819494860084640689C
:1020D00048600846406840F48060486008464068B0
:1020E00020F47C1048600846406840F4E8104860DE
:1020F0000846006840F08070086000BF0C48006827
:1021000000F000700028F9D00948406820F0030072
:10211000074948600846406840F00200486000BF38
:102120000348406800F00C000828F9D10CBD0000FD
:102130000010024000200240042808D14FF0E021A6
:10214000096941F004014FF0E022116107E04FF00E
:10215000E021096921F004014FF0E022116170478C
:102160007047000010B51348006840F001001149A5
:10217000086008464068104908400E494860084613
:1021800000680E4908400B4908600846006820F4C2
:10219000802008600846406820F4FE0048604FF444
:1021A0001F008860FFF753FF4FF00060044908608C
:1021B00010BD0000001002400000FFF8FFFFF6FE17
:1021C00008ED00E010B501210A4800F07FF8012871
:1021D0000AD10949086980470021064800F092F8B1
:1021E0006421044800F08CF80121024800F053F803
:1021F00010BD000000080040A400002010B501211F
:10220000094800F063F868B10848008840F40040CD
:10221000064908800121044800F03DF800210248E9
:1022200000F03CF810BD0000001400403400002015
:102230007FB505460C4601212020FFF793FDADF840
:102240000450ADF800400020ADF80600ADF80200E3
:1022500069460E4800F058F8012211460B4800F07C
:1022600046F80121094800F019F837208DF80C00D4
:1022700000208DF80D0002208DF80E0001208DF851
:102280000F0003A8FFF72AFD7FBD000000140040E7
:10229000CA4302827047CA430282704721B1028852
:1022A00042F00102028004E002884FF6FE731A40F9
:1022B000028070470146888C704702460020138ACE
:1022C0000B400BB1012000E00020704730B5024602
:1022D000002000230024158A05EA0103958905EAF8
:1022E000010413B10CB1012000E0002030BD1AB18F
:1022F00083890B43838102E083898B438381704709
:102300008185704781847047002202881D4B984266
:102310000ED01D4B98420BD0B0F1804F08D01B4B14
:10232000984205D01A4B984202D01A4B984204D1D9
:102330004FF68F731A404B881A43174B984207D0B9
:10234000164B984204D04FF6FF431A40CB881A43ED
:1023500002808B8883850B8803850A4B98420BD0BB
:10236000094B984208D00E4B984205D00D4B98422D
:1023700002D00D4B984201D10B7A03860123838250
:1023800070470000002C0140003401400004004070
:1023900000080040000C0040001000400014004005
:1023A0000040014000440140004801407FB505461F
:1023B0000C4601210420FFF7D5FCADF80850ADF81C
:1023C00004400020ADF80A00ADF8060001A90D4850
:1023D000FFF79AFF012241210A48FFF788FF1E20DC
:1023E0008DF8000003208DF801008DF80200012017
:1023F0008DF803006846FFF771FC01210148FFF7E3
:102400004DFF7FBD0008004010B540F225511D482A
:1024100000F0DDF810B31B4800F094F9C4B21A487C
:10242000008800F40040C8B91748008800F48040D4
:1024300060B10A2C03D000201349088020E0124824
:10244000008840F400401049088019E00D2C06D1A6
:102450000D48008840F480400B49088010E00A488D
:102460000088C0F30D0009490C5407480088401C3F
:102470000549088008460088C72801DD002008803B
:1024800010BD00000038014020000020E0010020C5
:1024900010B540F22551164800F099F8F8B11448EB
:1024A00000F050F9C4B21348008800F40040B0B9FD
:1024B00010480088B0F5167F12DA00210E48FFF7A9
:1024C00021FF0C48008818B901210B48FFF7E6FEF0
:1024D00008490888411C074A118008490C5405E046
:1024E0000448008840F400400249088010BD000004
:1024F000004800403400002000140040680500201F
:1025000021B1828942F40052828104E082894DF631
:10251000FF731A408281704710B5044620488442F8
:1025200009D101218803FFF74DFC00214FF48040C1
:10253000FFF748FC32E01B48844209D101214804DE
:10254000FFF720FC00214FF40030FFF71BFC25E0D3
:102550001548844209D101218804FFF713FC0021AA
:102560004FF48020FFF70EFC18E01048844209D198
:102570000121C804FFF706FC00214FF40020FFF7FB
:1025800001FC0BE00A48844208D101210805FFF74D
:10259000F9FB00214FF48010FFF7F4FB10BD0000A1
:1025A000003801400044004000480040004C00401A
:1025B0000050004002460020B1F5007F00D100BF6E
:1025C00013880B400BB1012000E00020704770B56C
:1025D0000246002400230025002040F66A16B1427E
:1025E00000D100BFC1F3421501F01F03012606FA16
:1025F00003F3012D02D19689334006E0022D02D16A
:10260000168A334001E0968A33400C12012606FAFE
:1026100004F41688344013B10CB1012000E000200E
:1026200070BDF0B50346002400260025002040F6CA
:102630006A17B94200D100BF1846C1F3421401F035
:102640001F06012707FA06F5012C01D10C3004E022
:10265000022C01D1103000E014301AB107682F436A
:10266000076002E00768AF430760F0BD2DE9F0475F
:1026700086B005460E460024A24600BFA1460027AC
:10268000B08900B100BF2F462C8A4CF6FF70044081
:10269000F08804432C82AC894EF6F3100440B088D5
:1026A00031890843718908430443AC81AC8A4FF6F1
:1026B000FF400440B0890443AC8201A8FFF792FBBD
:1026C0001F48874202D1DDF810A001E0DDF80CA020
:1026D000A88900F4004040B10AEBCA0000EB0A10E0
:1026E00031684900B0FBF1F807E00AEBCA0000EBE3
:1026F0000A1031688900B0FBF1F86420B8FBF0F0F3
:1027000004012009642101FB1089A88900F400401C
:1027100040B1322000EBC900B0FBF1F000F007003F
:10272000044308E0322000EB09106421B0FBF1F013
:1027300000F00F0004432C8106B0BDE8F0870000D4
:102740000038014001468888C0F308007047C1F393
:1027500008028280704700BFFEE7490050EAC120AE
:1027600018BF04204A0D18BF40F0010040F2FF726C
:10277000B2EB515F08BF40F00200012808BF0520FE
:10278000704730380A2801D2012070470020704776
:10279000014600BF7047000010B504460A48008893
:1027A00000F4004070B1002007490988C1F30E0110
:1027B000064A5054114606A0FDF7B2FD14B10020A0
:1027C0000149088010BD0000340000206805002089
:1027D0002573000070B5044600250948008800F400
:1027E000004058B1002006490988C1F30E01054A8E
:1027F000505421461046FDF74FFF0546284670BD50
:10280000340000206805002070B500F01FF808B102
:10281000002070BD322205A105A000F04FF808A0ED
:10282000FFF7D8FF05462C782046F2E73A00000073
:1028300041542B4349505354415455530000000018
:102840002B4349505354415455533A0010B500BFDF
:102850001748008800F040000028F9D02B201449C8
:10286000091D08800F2000F0C3F900BF1048008840
:1028700000F040000028F9D02B200D49091D0880E8
:102880000F2000F0B5F900BF0948008800F04000B3
:102890000028F9D02B200649091D08804FF4FA7052
:1028A00000F0A6F9142203A103A000F007F810BD60
:1028B000004800404F4B0000415400002DE9F0411A
:1028C00006460D461446002700201349088031466D
:1028D00012A000F0B7FAE5B1DCB113E00A2000F075
:1028E00087F90D48008800F4004058B12846FFF7EA
:1028F00071FF20B129460BA0FDF712FD06E0002074
:1029000005490880601E80B2041EE7D100BF04B9EB
:1029100001273846BDE8F0813400002025730D0AF8
:102920000000000061636B3A25730D0A000000008F
:102930002DE9F04106460D461446002700201149B6
:102940000880314610A000F07DFAC5B1BCB10FE09F
:102950000A2000F04DF90B48008800F4004038B11F
:102960002846FFF737FF00B106E000200549088040
:10297000601E80B2041EEBD100BF04B901273846A7
:10298000BDE8F081340000202573000000BF40F254
:10299000E73400BF002600252021002000F030FA97
:1029A0000746322249A14AA0FFF788FF142247A117
:1029B0004AA0FFF783FF601C00F01AF9601C00F0CA
:1029C00017F9601C00F014F9601C00F011F945487B
:1029D0000368454845A102683846FDF7ADFC00BFD5
:1029E0004FF4967239A13846FFF768FF0028F7D1F7
:1029F000142236A143A0FFF761FF454845A10268B4
:102A00003846FDF799FC142230A13846FFF756FFEF
:102A10005BE045494548FFF73CF84448017844A04D
:102A2000FDF77EFC4048017846A0FDF779FC3E4862
:102A300003783E48027847A13846FDF77DFCC8225E
:102A400022A14BA0FFF73AFFC82000F0D1F8642282
:102A50001EA13846FFF76CFF4948008800F400408B
:102A600090B147480088C0F30E06002045498855BC
:102A700045A0FDF755FC0020414908802B2D02D0D0
:102A80004FF47A7400E00024B4F57A7F0CD1FFF79C
:102A9000BBFE05462B2D03D13CA0FDF741FC02E017
:102AA0003DA0FDF73DFC0024142094FBF0F100FB59
:102AB000114038B93C48006808B9012000E0002006
:102AC000394908600120FFF767FEA2E74F4B00007D
:102AD00041542B43574D4F44453D320041542B52F6
:102AE00053540000B0010020A801002041542B43A2
:102AF000575341503D222573222C222573222C311D
:102B00002C34000041542B4349504D55583D310061
:102B10009801002041542B43495053455256455289
:102B20003D312C2573000000010000200000002032
:102B30000D0A2074656D7065726174757265203A56
:102B4000256400000D0A2068756D69646974792038
:102B50003A256400CEC2B6C8CAC7A3BA2564A3ACDE
:102B6000CAAAB6C8CAC7A3BA2564200D0A000000C5
:102B700041542B43495053454E443D302C3235008F
:102B8000340000206805002025730000C1ACBDD3CF
:102B9000B3C9B9A60D0A0000C1ACBDD3CAA7B0DC49
:102BA000A15C0D0A000000009481214210B56FF075
:102BB0000400FFF7C1FA0A4800680A49B0FBF1F0C7
:102BC000094908700846007800EB4001C1EBC010CD
:102BD0004FF6FF7101EAC0000449088010BD0000F3
:102BE0000400002000127A00180000201A000020C3
:102BF0000146114A12884A434FF0E0235A610022ED
:102C00009A611A46126942F001021A6100BF4FF040
:102C1000E022106900F001021AB100F48032002AAB
:102C2000F5D04FF0E022126922F001024FF0E023CC
:102C30001A6100229A6170471A0000200146114A69
:102C400012784A434FF0E0235A6100229A611A46F3
:102C5000126942F001021A6100BF4FF0E0221069D0
:102C600000F001021AB100F48032002AF5D04FF0D2
:102C7000E022126922F001024FF0E0231A610022E3
:102C80009A6170471800002000BF054A128802F0C0
:102C90004002002AF9D0C2B2014B1B1D1A807047B6
:102CA00000380140FFF782FF4FF4A060FFF74EF8B5
:102CB0004FF4E13000F0EEF8FEF7E6FFFEF7C6FF56
:102CC0004FF4E13000F036F9FEF78EFE01E0FFF739
:102CD0005DFEFCE710B504460C4951F824104A008B
:102CE0000B4951F82400002100F09EF8094951F8E1
:102CF00024200749083951F82400002100F094F8F5
:102D0000012103480830015510BD0000584100085A
:102D10005C000020684100082DE9F04704460F469A
:102D20000025A9462348005D20B9224818380168CB
:102D3000204688471FB94FF0FF30BDE8F0871E4896
:102D400050F82400B7FBF0F61B4850F82400B7FBFE
:102D5000F0F100FB117000B1761C184850F8240007
:102D6000451E22E01348083850F8240030F81500BA
:102D700010B909F1010901E04FF00009B14513D183
:102D80004FF0000809E00B48083850F8240005EB24
:102D9000080220F8126008F10108B045F3D3064894
:102DA00050F824006843C8E76D1E002DDADA4FF0B2
:102DB000FF30C2E76400002060410008584100086D
:102DC00010B501460023002207E00B4850F821000F
:102DD00030F8120000B15B1C521C084850F821006A
:102DE0009042F2D864205843044C54F82140B0FB80
:102DF000F4F0C0B210BD00005C0000205841000893
:102E000070B504460E4631462046FFF785FF05465D
:102E1000681C08B9002070BD024850F824002844FE
:102E2000F9E700005400002030B5034601E003F844
:102E3000011B141EA2F10102F9D130BD0146086840
:102E4000704700000FB438B505A800900F48009AED
:102E50000499FDF753FA002000900C48FDF72EFC72
:102E600085B200240DE000BF40210948FFF7A2FB16
:102E70000028F9D00548015D0548FFF768FC601C93
:102E800084B2AC42EFDB38BC5DF814FBC007002015
:102E90000048004010B586B00446012144F2040009
:102EA000FEF780FF4FF40070ADF8140003208DF89A
:102EB000160018208DF8170005A91C48FEF737FEEC
:102EC0004FF48060ADF8140004208DF8170005A9B8
:102ED0001648FEF72CFE25208DF8000003208DF803
:102EE00001008DF8020001208DF803006846FEF70E
:102EF000F5FE01940020ADF80800ADF80A00ADF829
:102F00000C00ADF810000C20ADF80E0001A9084827
:102F1000FFF7ACFB012240F225510548FFF781FB8A
:102F200001210348FFF7ECFA06B010BD000801408C
:102F30000038014010B586B0044601210820FEF794
:102F400031FF01218804FEF70DFF2A48FFF7E4FA5C
:102F50004FF48060ADF8100003208DF812001820A7
:102F60008DF8130004A92448FEF7E1FD4FF400603A
:102F7000ADF8100004208DF8130004A91E48FEF7D8
:102F8000D6FD00940020ADF80400ADF80600ADF8C1
:102F90000800ADF80C000C20ADF80A006946154891
:102FA000FFF764FB01211348FFF7AAFA012240F260
:102FB00025511048FFF735FB27208DF8140002201B
:102FC0008DF8150003208DF8160001208DF81700EC
:102FD00005A8FEF783FE41F61F4140F2E730FFF7F8
:102FE00027F900200549088000210548FFF756F918
:102FF00006B010BD00480040000C01403400002025
:103000000014004030B595B0054613AB12AA09A9CB
:10301000284600F039FA044614B1204615B030BDF8
:103020000020149026E0224909689DF8502001EB09
:10303000C20113AB11AA486801A900F025FA0446A1
:103040000CB12046EAE709A901A800F0BBFC60B971
:103050009DF844009DF84810884201DD0220DDE71C
:103060009DF85000124988750AE09DF85000401CF8
:10307000C0B214900E48007D9DF850108842D2DCFA
:1030800000BF0B48007D9DF85010884201D10420FC
:10309000C4E714A9284600F0D7FA04460CB120462C
:1030A000BCE79DF85000024948750020B6E70000D3
:1030B000A40000202DE9F0419AB09C48847D007D59
:1030C000A04202DC1AB0BDE8F0819849096801EB22
:1030D000C40106AB07AA486808A900F0D5F908A9F9
:1030E00093A0FDF71DF9002644E09048008B0121D4
:1030F000B1400840D8B122218FA0FDF711F9304628
:1031000000F028FB89492431471839468BA0FDF788
:1031100007F9222188A0FDF703F9304600F01AFBD9
:1031200082492431084410A941F8260018E03046AD
:1031300000F010FB7D492431085810A941F8260001
:103140007A48C07D30B910A850F826107CA0FDF751
:10315000E7F805E010A850F826107AA0FDF7E0F88F
:103160009DF81C00401EB04202D078A0FDF7D8F8B0
:10317000701CC6B29DF81C008642B6DB74A0FDF739
:10318000CFF800F039FB6948407D0B280DD2DFE80D
:1031900000F0060D151E27323F4E5F72870063490F
:1031A000096851F834008047054690E05F4A12688C
:1031B00052F8341010988847054688E05B4B1B682E
:1031C00053F83420DDE91001904705467FE0574F62
:1031D0003F6857F8343010A807C89847054676E08E
:1031E000DFF848C1DCF800C05CF8347010A80FC8E4
:1031F000B84705466BE01498DFF830C10090DCF862
:1032000000C05CF8347010A80FC8B84705465EE0EF
:10321000DDE91401DFF814C1CDE90001DCF800C0DC
:103220005CF8347010A80FC8B84705464FE0DDE9D8
:1032300014121698DFF8F4C0CDE900120290DCF801
:1032400000C05CF8347010A80FC8B84705463EE0CF
:10325000DDE91423DDE91610DFF8D0C0CDE9002345
:10326000CDE90210DCF800C05CF8347010A80FC87B
:10327000B84705462BE0DDE91523DDE91710CDE958
:103280000123CDE903101498DFF8A0C00090DCF80A
:1032900000C05CF8347010A80FC8B847054616E0A7
:1032A000DDE91623DDE91810CDE90223CDE904108C
:1032B000DDE91401DFF874C0CDE90001DCF800C0DD
:1032C0005CF8347010A80FC8B847054600BF00BFAF
:1032D00000F050FA9DF8180001280CD11348C07D69
:1032E00020B929461BA0FDF71BF807E029461BA0C3
:1032F000FDF716F802E018A0FDF712F80B4890F859
:10330000EC0088B10948D0F8F0000A21B0FBF1F2D6
:1033100001FB12070548D0F8F000B0FBF1F83A467F
:10332000414611A0FCF7FCFF00BFCBE6A400002043
:103330000D0A257328000000256300002573000096
:10334000256C750030582558000000002C00000046
:10335000290000003D256C753B0D0A003D305825C5
:10336000583B0D0A0000000046756E6374696F6E6D
:103370002052756E2054696D653A25642E2531649E
:103380006D730D0A00000000F0B5034615460020DD
:1033900000220026002455E01F782C2F01D104B90B
:1033A00001221F78292F01D01F780FB904B94AE0F4
:1033B000002E34D11F78302F02DB1F78392F11DD1A
:1033C0001F78612F02DB1F78662F0BDD1F78412FDE
:1033D00002DB1F78462F05DD1F78582F02D01F789B
:1033E000782F0CD102B12EE01F78612F03DB1F78FC
:1033F000203F0F7001E01F780F70491C1FE01F78FD
:10340000222F04D102B11EE00126012417E01F780B
:10341000202F14D01F782C2F11D0FF2613E01F78F7
:10342000222F00D1002402B10DE044B11F785C2F9F
:1034300002D15B1C471CF8B21F780F70491C471C57
:10344000F8B25B1CA8E700BF00270F702E70F0BD1C
:1034500010B50446002010700BE020780870641C42
:10346000491C1078401C10701078984201DB012034
:1034700010BD2078202802D020780028EDD100202F
:10348000087000BFF4E700002DE9FF4F85B08046CB
:1034900089460027002004900390012002904FF0FD
:1034A000000B002544461DE02078202816D005F0AA
:1034B0007F00052812DA0DB945F0800505F07F0080
:1034C000042803D120782A2800D00EE0207805F0C7
:1034D0007F010DF80100681CC5B202E0852D00D106
:1034E00003E0641C20780028DED100BF8DB10020ED
:1034F00005F07F010DF8010051A1684600F062FA65
:1035000018B900210898017002E0012108980170A3
:1035100000254FF0000A444614E0641C0AF1010043
:1035200000F0FF0A2078202802D020782A2809D12C
:10353000204600F0D7F90646282E03D02A2E01D0C7
:10354000CDF810A02078282802D020780028E4D1D7
:103550004446049810B10498401C04444FF0000AFB
:10356000002654E0207810B94FF0010A50E020788E
:10357000282803D116B9781CC7B213E0207829286F
:1035800008D13EB917B1781EC7B201E04FF0010A69
:1035900047B93DE02078222804D10EB9012000E08F
:1035A0000020064647B9207820282FD0207889F8B7
:1035B000000009F1010929E020782C2804D101201C
:1035C0000290681CC5B214E02078202811D0207821
:1035D00028280ED04DB9BBF1050F06DA20780DF87A
:1035E0000B000BF1010000F0FF0B0298401CC0B271
:1035F0000290012F0AD10298022807D10298401C9C
:10360000C0B202900398401CC0B20390641CA9E7AA
:1036100000BF0398012809D100200DF80B0008A174
:10362000684600F0CFF908B9002003900799039885
:103630000870002089F80000504609B0BDE8F08FFE
:10364000766F6964000000002DE9F043B5B00546CF
:103650000F460024002604E000213D488155701CDF
:10366000C6B20A2EF8DB06E06D1C287818B90120D6
:1036700035B0BDE8F08328782828F5D16D1C61E0CD
:1036800034AA69462846FFF77FFE064635449DF872
:10369000D00020B1012827D0FF284CD149E09DF867
:1036A000000000B333A9684600F027F906460EB1C2
:1036B0000220DDE7204600F04DF825490A31339A13
:1036C0000A50A1F12400008B0121A1408843204928
:1036D0001A39088304211E480155601CC4B20A2C03
:1036E00001DD0320C4E726E0684600F087F9401CAE
:1036F00000F0FF08204600F02DF815490A3100EBD4
:1037000001094946684600F06EF911481A38018BE4
:103710000120A040014388B20D491A3908830C48A2
:1037200000F80480601CC4B20A2C01DD03209FE76E
:1037300001E002209CE700BF2878292801D02878E2
:1037400000B900E09CE700BF3C70002090E700005B
:10375000BE00002002460020002105E0044B5B5C17
:103760000344D8B24B1CD9B29142F7DB704700003A
:10377000BE00002010B501210D48FEF79EFD012876
:1037800008D10C48D0F8F0004FF6FF710844094901
:10379000C1F8F0000648FEF78DFD0649D1F8F0109B
:1037A00008440449C1F8F0000846D0F8F00010BD04
:1037B00000080040A400002010B5044604EBC4003B
:1037C00000EB04100122C2EB800081B24FF47A704A
:1037D000FEF7ECFD01200149C87510BDA4000020D2
:1037E00010B50246012000E050430B1EA1F1010478
:1037F000E1B2F9D110BD000010B501210848FEF773
:1038000047FD4FF6FF710648FEF77AFD0021044898
:10381000FEF778FD00200349C1F8F00010BD00005C
:1038200000080040A400002070B51D48008800F486
:103830000040002833D01A4805780020194948551F
:10384000194881681748884704461CB91649C86852
:10385000804721E0134800F0DDF80546012D00D037
:103860002C46CCB1012C06D0022C08D0032C0AD057
:10387000042C10D10BE00DA0FCF752FD0BE00EA0C4
:10388000FCF74EFD07E00FA0FCF74AFD03E010A097
:10389000FCF746FD00BF00BF00200149088070BD55
:1038A00020000020E0010020A4000020BAAFCAFDE3
:1038B000B4EDCEF3210D0A00B2CECAFDB4EDCEF3C5
:1038C000210D0A00B2CECAFDCCABB6E0210D0A0034
:1038D000CEB4D5D2B5BDC6A5C5E4B5C4BAAFCAFD90
:1038E000210D0A000146491C00E0491C08782028E7
:1038F00001D10029F9D1087870472DE9F043074636
:103900000E4600254FF00A083C46002030601FE0BC
:103910002078392802DC207830280ADA20784628F6
:1039200002DC2078412804DA2078582809D1012DBA
:1039300007D12078412801DB4FF01008681CC5B280
:1039400005E0207800B904E00120BDE8F083641CA4
:10395000DEE700BF3C46B8F1100F0FD1032D01DAAE
:103960000220F2E72078302806D16078582803D169
:10397000A41CA81EC5B204E00320E6E70DB904208C
:10398000E3E71BE00DB1681EC5B22078392806DCDC
:103990002078302803DB2078A0F1300902E020787D
:1039A000A0F1370929464046FFF71AFF316809FBA5
:1039B00000103060641C207800B900E0E2E700BF2E
:1039C0000020C2E702460AE010780B78984201D046
:1039D00001207047107800B902E0521C491CF3E73F
:1039E00000BF0020F5E706E002780A70027802B90D
:1039F00002E0401C491CF7E700BF70470146002069
:103A000005E00A7802B903E0421CD0B2491CF8E78D
:103A100000BF704710B58CB004461E230BAA03A943
:103A20002046FFF715FD0090009810B101200CB062
:103A300010BD9DF82C00044400200B900EE040487F
:103A40009DF82C2050F8221003A8FFF7BBFF00B907
:103A500008E09DF82C00401CC0B20B909DF82C0093
:103A60000728ECD300BF9DF82C00072863D2DFE8BD
:103A700000F004053C5E6564630000BF31A0FCF704
:103A80004FFC31A0FCF74CFC3FA0FCF749FC4EA0DA
:103A9000FCF746FC5CA0FCF743FC6BA0FCF740FC89
:103AA00079A0FCF73DFC86A0FCF73AFC8BA0FCF764
:103AB00037FC90A0FCF734FC94A0FCF731FC99A0F3
:103AC000FCF72EFC9EA0FCF72BFCA4A0FCF728FC26
:103AD000B0A0FCF725FCBDA0FCF722FCC8A0FCF7B9
:103AE0001FFCD4A0FCF71CFC9AE216A0FCF718FC03
:103AF000E0A0FCF715FC00200B900EE0ED480068FC
:103B00009DF82C2000EBC2004168EBA0FCF708FCFC
:103B10009DF82C00401CC0B20B90E648007D9DF83B
:103B20002C108842EADC07A0FCF7FAFB78E205A03B
:103B3000FCF7F6FBC4E171E245E219E2ECE10000BA
:103B4000680000200D0A00002D2D2D2D2D2D2D2D6E
:103B50002D2D2D2D2D2D2D2D2D2D2D2D2D2D2D2D95
:103B600055534D4152542056332E312D2D2D2D2D90
:103B70002D2D2D2D2D2D2D2D2D2D2D2D2D2D2D2D75
:103B80002D2D2D200D0A00002020202055534D41C1
:103B90005254CAC7D3C9414C49454E54454BBFAA9C
:103BA000B7A2B5C4D2BBB8F6C1E9C7C9B5C4B4AEF3
:103BB000BFDAB5F7CAD4BBA5BDBBD7E9BCFE2CCDD7
:103BC000A8B9FD200D0A0000CBFC2CC4E3BFC9D26C
:103BD000D4CDA8B9FDB4AEBFDAD6FACAD6B5F7D3FC
:103BE000C3B3CCD0F2C0EFC3E6B5C4C8CEBACEBA28
:103BF000AFCAFD2CB2A2D6B4D0D02ED2F2B4CB2C08
:103C0000C4E3BFC90D0A0000D2D4CBE6D2E2B8FCAF
:103C1000B8C4BAAFCAFDB5C4CAE4C8EBB2CECAFDD7
:103C200028D6A7B3D6CAFDD7D62831302F3136BD16
:103C3000F8D6C629A1A2D7D6B7FBB4AEA1A2BAAF17
:103C4000CAFDC8EB0D0A0000BFDAB5D8D6B7B5C8B3
:103C5000D7F7CEAAB2CECAFD292CB5A5B8F6BAAF11
:103C6000CAFDD7EEB6E0D6A7B3D63130B8F6CAE46F
:103C7000C8EBB2CECAFD2CB2A2D6A7B3D6BAAFCA91
:103C8000FDB7B5200D0A0000BBD8D6B5CFD4CABE4B
:103C90002ED0C2D4F6B2CECAFDCFD4CABEBDF8D69D
:103CA000C6C9E8D6C3B9A6C4DC2CD0C2D4F6BDF8C8
:103CB000D6C6D7AABBBBB9A6C4DC2E0D0A0000002D
:103CC000BCBCCAF5D6A7B3D63A7777772E6F7065A6
:103CD0006E6564762E636F6D0D0A000055534D417D
:103CE0005254D3D037B8F6CFB5CDB3C3FCC1EE3AFA
:103CF0000D0A00003F3A202020202020BBF1C8A15F
:103D0000B0EFD6FAD0C5CFA20D0A000068656C707E
:103D10003A202020BBF1C8A1B0EFD6FAD0C5CFA27F
:103D20000D0A00006C6973743A202020BFC9D3C308
:103D3000B5C4BAAFCAFDC1D0B1ED0D0A0A0000008A
:103D400069643A2020202020BFC9D3C3BAAFCAFD7E
:103D5000B5C44944C1D0B1ED0D0A0A006865783A8E
:103D600020202020B2CECAFD3136BDF8D6C6CFD431
:103D7000CABE2CBAF3B8FABFD5B8F12BCAFDD7D654
:103D8000BCB4D6B4D0D0BDF8D6C6D7AABBBB0D0A3A
:103D90000A0000006465633A20202020B2CECAFDEC
:103DA0003130BDF8D6C6CFD4CABE2CBAF3B8FABFEC
:103DB000D5B8F12BCAFDD7D6BCB4D6B4D0D0BDF897
:103DC000D6C6D7AABBBB0D0A0A00000072756E7476
:103DD000696D653A312CBFAAC6F4BAAFCAFDD4CB1F
:103DE000D0D0BCC6CAB13B302CB9D8B1D5BAAFCA55
:103DF000FDD4CBD0D0BCC6CAB13B0D0A0A0000002E
:103E0000C7EBB0B4D5D5B3CCD0F2B1E0D0B4B8F1F3
:103E1000CABDCAE4C8EBBAAFCAFDC3FBBCB0B2CEE0
:103E2000CAFDB2A2D2D4BBD8B3B5BCFCBDE1CAF8BE
:103E30002E0D0A002D2D2D2D2D2D2D2D2D2D2D2D21
:103E40002D2D2D2D2D2D2D2D2D2D2D2D2D2D414C6F
:103E500049454E54454B2D2D2D2D2D2D2D2D2D2DE0
:103E60002D2D2D2D2D2D2D2D2D2D2D2D2D2D2D208F
:103E70000D0A00002D2D2D2D2D2D2D2D2D2D2D2D0F
:103E80002D2D2D2D2D2D2D2D2D2D2D2D2DBAAFCAB6
:103E9000FDC7E5B5A52D2D2D2D2D2D2D2D2D2D2D30
:103EA0002D2D2D2D2D2D2D2D2D2D2D2D2D2D2D2D42
:103EB000200D0A00A400002025730D0A0000000058
:103EC00059A0FCF72DFA00200B901AE0664909680A
:103ED0009DF82C2001EBC20101AB02AA486803A99E
:103EE000FFF7D2FA604800689DF82C1050F8312096
:103EF00003A95EA0FCF714FA9DF82C00401CC0B288
:103F00000B905948007D9DF82C108842DEDCAFF202
:103F1000CC30FCF705FA83E0AFF2D830FCF700FABA
:103F20000BAA03A92046FFF72FFA9DF82C00C8B969
:103F3000694603A8FFF7E1FC0B909DF82C0020B91F
:103F40004FA00099FCF7ECF90EE09DF82C00042836
:103F500001D002206BE54DA0FCF7E2F901204249B7
:103F6000C87501E0022062E547A0FCF7D9F957E0E7
:103F700045A0FCF7D5F90BAA03A92046FFF704FAE0
:103F80009DF82C00C8B9694603A8FFF7B6FC0B9052
:103F90009DF82C0020B942A00099FCF7C1F90EE071
:103FA0009DF82C00042801D0022040E53FA0FCF73A
:103FB000B7F900202C49C87501E0022037E532A08E
:103FC000FCF7AEF92CE030A0FCF7AAF90BAA03A984
:103FD0002046FFF7D9F99DF82C00C8B9694603A817
:103FE000FFF78BFC0B909DF82C0078B91E490098C8
:103FF00081F8EC00084690F8EC0018B130A0FCF70E
:104000008FF907E035A0FCF78BF903E002200EE5FD
:1040100002200CE51CA0FCF783F901E0012006E575
:1040200000BF002003E500002D2D2D2D2D2D2D2D61
:104030002D2D2D2D2D2D2D2D2D2D2D2D2D2D2D2DB0
:104040002DBAAFCAFD204944202D2D2D2D2D2D2D0B
:104050002D2D2D2D2D2D2D2D2D2D2D2D2D2D2D2D90
:104060002D2D2D2D200D0A00A40000202573206980
:10407000642069733A0D0A3058253038580D0A000B
:104080004845583A305825580D0A00003136BDF8D9
:10409000D6C6B2CECAFDCFD4CABE210D0A000000DA
:1040A0004445433A256C750D0A0000003130BDF8D7
:1040B000D6C6B2CECAFDCFD4CABE210D0A000000BA
:1040C00052756E2054696D652043616C63756C6137
:1040D00074696F6E204F4E0D0A00000052756E20FD
:1040E00054696D652043616C63756C6174696F6EB2
:1040F000204F46460D0A00000160704710B50029A8
:104100000AD00878002807D005487844FCF7F6FA6A
:10411000002801D0002010BD0248784410BD0000E6
:10412000CE020000C602000010B500290AD00878AF
:10413000002807D005487844FCF7E0FA002801D0B1
:10414000002010BD0248784410BD0000BE020000EF
:10415000B6020000FCF7CCBD0005000000780000AE
:10416000200000002000000000A0000000000F0060
:10417000303132333435363738394142434445469D
:104180004030580030313233343536373839616297
:104190006364656640307800040000080000000099
:1041A00000000002000100001000000000000000FC
:1041B0000000000002400000000000A0000000001D
:1041C00005400000000000C8000000000C40000096
:1041D0000000409C00000000194000000020BCBE10
:1041E0000000000034400000BFC91B8E0000000426
:1041F000B5400000504BCFD06607E2CF0100000071
:104200006C4100003E8251AADFEEA734010000009D
:10421000D9420000DCB5A0E23A301F97FFFFFFFF54
:10422000B4450000FD25A0C8E9A3C14FFFFFFFFF73
:10423000FF3F00000000008000000000FF3F000082
:1042400000000080000000003F0000006465630083
:104250006964000072756E74696D650068656C70E4
:10426000000000006C69737400000000686578004D
:10427000766F69642061746B5F726D30345F717545
:1042800069745F7472616E7328766F6964290000C7
:1042900075382061746B5F383236365F73656E64D3
:1042A0005F636D64287538202A636D642C7538202F
:1042B0002A61636B2C753136207761697474696D7E
:1042C00065290000766F69642077726974655F61A3
:1042D0006464722875333220616464722C753332E1
:1042E0002076616C290000007533322072656164AC
:1042F0005F616464722875333220616464722900DE
:10430000415026535441C4A3CABD2000535441C454
:10431000A3CABD20000000004150C4A3CABD2000B4
:1043200031353930323032303335330041544B2D52
:1043300045535038323636003830383600000000E9
:10434000313233343536373800000000414C4945AE
:104350004E54454B00000000575041325F50534BC4
:10436000000000005750415F574150325F50534B9F
:10437000000000005750415F50534B004F50454ED6
:104380000000000057455000777061777061325F20
:10439000616573002055445020C4A3CABD000000CD
:1043A000544350BFCDBBA7B6CB000000544350B719
:1043B000FECEF1C6F7000000044500080000002012
:1043C000E00100006C010008B4450008E001002095
:1043D000A0B80000C80100081C0000004300000055
:1043E000F8FFFFFF0C0000000E0000000F000000AF
:1043F0002E0000001001000043000000F8FFFFFF46
:1044000000404040404040404040414141414140E7
:10441000404040404040404040404040404040409C
:10442000400502020202020202020202020202022B
:104430000220202020202020202020020202020230
:104440000202909090909090101010101010101088
:104450001010101010101010101010100202020294
:1044600002028888888888880808080808080808D8
:1044700008080808080808080808080802020202D4
:1044800040000000000000000000000000000000EC
:10449000000000000000000000000000000000001C
:1044A000000000000000000000000000000000000C
:1044B00000000000000000000000000000000000FC
:1044C00000000000000000000000000000000000EC
:1044D00000000000000000000000000000000000DC
:1044E00000000000000000000000000000000000CC
:1044F00000000000000000000000000000000000BC
:10450000000000005184A24A0400091401020304BF
:1045100006070809CA010E192A692E250204060891
:1045200013D52C1408C12D1408200A32202C682021
:10453000AA08430F681348421B085C041A64041A53
:1045400050041A6C041A4C041A5404133D2E1B0810
:10455000E80813F9401B08C40813BD281B0890087D
:104560001A4D081A700822841420B937140805302F
:104570001B08B5041329381A08B1C98F01CF1338A5
:10458000431B084C041A88041A20045A2C0C1A40A5
:10459000041A0C041A18041119041AAC041AA00401
:1045A0001A94041A7C041A84041A74041A58041AFB
:0445B000640400009F
:0400000508000131BD
:00000001FF
